{
  "contractName": "ERC6551Account",
  "abi": [
    {
      "anonymous": false,
      "inputs": [
        {
          "indexed": true,
          "internalType": "address",
          "name": "target",
          "type": "address"
        },
        {
          "indexed": true,
          "internalType": "uint256",
          "name": "value",
          "type": "uint256"
        },
        {
          "indexed": false,
          "internalType": "bytes",
          "name": "data",
          "type": "bytes"
        }
      ],
      "name": "TransactionExecuted",
      "type": "event"
    },
    {
      "inputs": [],
      "name": "nonce",
      "outputs": [
        {
          "internalType": "uint256",
          "name": "",
          "type": "uint256"
        }
      ],
      "stateMutability": "view",
      "type": "function"
    },
    {
      "stateMutability": "payable",
      "type": "receive"
    },
    {
      "inputs": [
        {
          "internalType": "address",
          "name": "to",
          "type": "address"
        },
        {
          "internalType": "uint256",
          "name": "value",
          "type": "uint256"
        },
        {
          "internalType": "bytes",
          "name": "data",
          "type": "bytes"
        }
      ],
      "name": "executeCall",
      "outputs": [
        {
          "internalType": "bytes",
          "name": "result",
          "type": "bytes"
        }
      ],
      "stateMutability": "payable",
      "type": "function"
    },
    {
      "inputs": [],
      "name": "token",
      "outputs": [
        {
          "internalType": "uint256",
          "name": "",
          "type": "uint256"
        },
        {
          "internalType": "address",
          "name": "",
          "type": "address"
        },
        {
          "internalType": "uint256",
          "name": "",
          "type": "uint256"
        }
      ],
      "stateMutability": "view",
      "type": "function"
    },
    {
      "inputs": [],
      "name": "owner",
      "outputs": [
        {
          "internalType": "address",
          "name": "",
          "type": "address"
        }
      ],
      "stateMutability": "view",
      "type": "function"
    },
    {
      "inputs": [
        {
          "internalType": "bytes4",
          "name": "interfaceId",
          "type": "bytes4"
        }
      ],
      "name": "supportsInterface",
      "outputs": [
        {
          "internalType": "bool",
          "name": "",
          "type": "bool"
        }
      ],
      "stateMutability": "pure",
      "type": "function"
    },
    {
      "inputs": [
        {
          "internalType": "bytes32",
          "name": "hash",
          "type": "bytes32"
        },
        {
          "internalType": "bytes",
          "name": "signature",
          "type": "bytes"
        }
      ],
      "name": "isValidSignature",
      "outputs": [
        {
          "internalType": "bytes4",
          "name": "magicValue",
          "type": "bytes4"
        }
      ],
      "stateMutability": "view",
      "type": "function"
    }
  ],
  "bytecode": "0x608060405234801561001057600080fd5b50611277806100206000396000f3fe6080604052600436106100595760003560e01c806301ffc9a7146100655780631626ba7e146100a25780638da5cb5b146100df5780639e5d4c491461010a578063affed0e01461013a578063fc0c546a1461016557610060565b3661006057005b600080fd5b34801561007157600080fd5b5061008c60048036038101906100879190610926565b610192565b604051610099919061096e565b60405180910390f35b3480156100ae57600080fd5b506100c960048036038101906100c49190610b05565b610264565b6040516100d69190610b70565b60405180910390f35b3480156100eb57600080fd5b506100f461029d565b6040516101019190610bcc565b60405180910390f35b610124600480360381019061011f9190610ca9565b6103ae565b6040516101319190610d9c565b60405180910390f35b34801561014657600080fd5b5061014f610516565b60405161015c9190610dcd565b60405180910390f35b34801561017157600080fd5b5061017a61051c565b60405161018993929190610de8565b60405180910390f35b60007f01ffc9a7000000000000000000000000000000000000000000000000000000007bffffffffffffffffffffffffffffffffffffffffffffffffffffffff1916827bffffffffffffffffffffffffffffffffffffffffffffffffffffffff1916148061025d57507f400a0398000000000000000000000000000000000000000000000000000000007bffffffffffffffffffffffffffffffffffffffffffffffffffffffff1916827bffffffffffffffffffffffffffffffffffffffffffffffffffffffff1916145b9050919050565b60008061027961027261029d565b8585610534565b9050801561029157631626ba7e60e01b915050610297565b60009150505b92915050565b6000806000803073ffffffffffffffffffffffffffffffffffffffff1663fc0c546a6040518163ffffffff1660e01b8152600401606060405180830381865afa1580156102ee573d6000803e3d6000fd5b505050506040513d601f19601f820116820180604052508101906103129190610e49565b92509250925046831461032b57600093505050506103ab565b8173ffffffffffffffffffffffffffffffffffffffff16636352211e826040518263ffffffff1660e01b81526004016103649190610dcd565b602060405180830381865afa158015610381573d6000803e3d6000fd5b505050506040513d601f19601f820116820180604052508101906103a59190610e9c565b93505050505b90565b60606103b861029d565b73ffffffffffffffffffffffffffffffffffffffff163373ffffffffffffffffffffffffffffffffffffffff1614610425576040517f08c379a000000000000000000000000000000000000000000000000000000000815260040161041c90610f26565b60405180910390fd5b600080815461043390610f75565b91905081905550838573ffffffffffffffffffffffffffffffffffffffff167f47d99ad340f52da66535aff7e10da1ceb85a32bcbd9fa1c42314d194545e14d28585604051610483929190610fea565b60405180910390a360008573ffffffffffffffffffffffffffffffffffffffff168585856040516104b592919061103e565b60006040518083038185875af1925050503d80600081146104f2576040519150601f19603f3d011682016040523d82523d6000602084013e6104f7565b606091505b5080935081925050508061050d57815160208301fd5b50949350505050565b60005481565b60008060006105296105c3565b925092509250909192565b60008060006105438585610643565b915091506000600481111561055b5761055a611057565b5b81600481111561056e5761056d611057565b5b1480156105a657508573ffffffffffffffffffffffffffffffffffffffff168273ffffffffffffffffffffffffffffffffffffffff16145b806105b857506105b7868686610694565b5b925050509392505050565b600080600080606067ffffffffffffffff8111156105e4576105e36109da565b5b6040519080825280601f01601f1916602001820160405280156106165781602001600182028036833780820191505090505b5090506060604d60208301303c8080602001905181019061063791906110c4565b93509350935050909192565b60008060418351036106845760008060006020860151925060408601519150606086015160001a9050610678878285856107d8565b9450945050505061068d565b60006002915091505b9250929050565b60008060008573ffffffffffffffffffffffffffffffffffffffff16631626ba7e60e01b86866040516024016106cb929190611126565b604051602081830303815290604052907bffffffffffffffffffffffffffffffffffffffffffffffffffffffff19166020820180517bffffffffffffffffffffffffffffffffffffffffffffffffffffffff83818316178352505050506040516107359190611187565b600060405180830381855afa9150503d8060008114610770576040519150601f19603f3d011682016040523d82523d6000602084013e610775565b606091505b509150915081801561078957506020815110155b80156107cd5750631626ba7e60e01b7bffffffffffffffffffffffffffffffffffffffffffffffffffffffff1916818060200190518101906107cb91906111b3565b145b925050509392505050565b6000807f7fffffffffffffffffffffffffffffff5d576e7357a4501ddfe92f46681b20a08360001c11156108135760006003915091506108b1565b60006001878787876040516000815260200160405260405161083894939291906111fc565b6020604051602081039080840390855afa15801561085a573d6000803e3d6000fd5b505050602060405103519050600073ffffffffffffffffffffffffffffffffffffffff168173ffffffffffffffffffffffffffffffffffffffff16036108a8576000600192509250506108b1565b80600092509250505b94509492505050565b6000604051905090565b600080fd5b600080fd5b60007fffffffff0000000000000000000000000000000000000000000000000000000082169050919050565b610903816108ce565b811461090e57600080fd5b50565b600081359050610920816108fa565b92915050565b60006020828403121561093c5761093b6108c4565b5b600061094a84828501610911565b91505092915050565b60008115159050919050565b61096881610953565b82525050565b6000602082019050610983600083018461095f565b92915050565b6000819050919050565b61099c81610989565b81146109a757600080fd5b50565b6000813590506109b981610993565b92915050565b600080fd5b600080fd5b6000601f19601f8301169050919050565b7f4e487b7100000000000000000000000000000000000000000000000000000000600052604160045260246000fd5b610a12826109c9565b810181811067ffffffffffffffff82111715610a3157610a306109da565b5b80604052505050565b6000610a446108ba565b9050610a508282610a09565b919050565b600067ffffffffffffffff821115610a7057610a6f6109da565b5b610a79826109c9565b9050602081019050919050565b82818337600083830152505050565b6000610aa8610aa384610a55565b610a3a565b905082815260208101848484011115610ac457610ac36109c4565b5b610acf848285610a86565b509392505050565b600082601f830112610aec57610aeb6109bf565b5b8135610afc848260208601610a95565b91505092915050565b60008060408385031215610b1c57610b1b6108c4565b5b6000610b2a858286016109aa565b925050602083013567ffffffffffffffff811115610b4b57610b4a6108c9565b5b610b5785828601610ad7565b9150509250929050565b610b6a816108ce565b82525050565b6000602082019050610b856000830184610b61565b92915050565b600073ffffffffffffffffffffffffffffffffffffffff82169050919050565b6000610bb682610b8b565b9050919050565b610bc681610bab565b82525050565b6000602082019050610be16000830184610bbd565b92915050565b610bf081610bab565b8114610bfb57600080fd5b50565b600081359050610c0d81610be7565b92915050565b6000819050919050565b610c2681610c13565b8114610c3157600080fd5b50565b600081359050610c4381610c1d565b92915050565b600080fd5b600080fd5b60008083601f840112610c6957610c686109bf565b5b8235905067ffffffffffffffff811115610c8657610c85610c49565b5b602083019150836001820283011115610ca257610ca1610c4e565b5b9250929050565b60008060008060608587031215610cc357610cc26108c4565b5b6000610cd187828801610bfe565b9450506020610ce287828801610c34565b935050604085013567ffffffffffffffff811115610d0357610d026108c9565b5b610d0f87828801610c53565b925092505092959194509250565b600081519050919050565b600082825260208201905092915050565b60005b83811015610d57578082015181840152602081019050610d3c565b60008484015250505050565b6000610d6e82610d1d565b610d788185610d28565b9350610d88818560208601610d39565b610d91816109c9565b840191505092915050565b60006020820190508181036000830152610db68184610d63565b905092915050565b610dc781610c13565b82525050565b6000602082019050610de26000830184610dbe565b92915050565b6000606082019050610dfd6000830186610dbe565b610e0a6020830185610bbd565b610e176040830184610dbe565b949350505050565b600081519050610e2e81610c1d565b92915050565b600081519050610e4381610be7565b92915050565b600080600060608486031215610e6257610e616108c4565b5b6000610e7086828701610e1f565b9350506020610e8186828701610e34565b9250506040610e9286828701610e1f565b9150509250925092565b600060208284031215610eb257610eb16108c4565b5b6000610ec084828501610e34565b91505092915050565b600082825260208201905092915050565b7f4e6f7420746f6b656e206f776e65720000000000000000000000000000000000600082015250565b6000610f10600f83610ec9565b9150610f1b82610eda565b602082019050919050565b60006020820190508181036000830152610f3f81610f03565b9050919050565b7f4e487b7100000000000000000000000000000000000000000000000000000000600052601160045260246000fd5b6000610f8082610c13565b91507fffffffffffffffffffffffffffffffffffffffffffffffffffffffffffffffff8203610fb257610fb1610f46565b5b600182019050919050565b6000610fc98385610d28565b9350610fd6838584610a86565b610fdf836109c9565b840190509392505050565b60006020820190508181036000830152611005818486610fbd565b90509392505050565b600081905092915050565b6000611025838561100e565b9350611032838584610a86565b82840190509392505050565b600061104b828486611019565b91508190509392505050565b7f4e487b7100000000000000000000000000000000000000000000000000000000600052602160045260246000fd5b600061109182610b8b565b9050919050565b6110a181611086565b81146110ac57600080fd5b50565b6000815190506110be81611098565b92915050565b6000806000606084860312156110dd576110dc6108c4565b5b60006110eb86828701610e1f565b93505060206110fc868287016110af565b925050604061110d86828701610e1f565b9150509250925092565b61112081610989565b82525050565b600060408201905061113b6000830185611117565b818103602083015261114d8184610d63565b90509392505050565b600061116182610d1d565b61116b818561100e565b935061117b818560208601610d39565b80840191505092915050565b60006111938284611156565b915081905092915050565b6000815190506111ad81610993565b92915050565b6000602082840312156111c9576111c86108c4565b5b60006111d78482850161119e565b91505092915050565b600060ff82169050919050565b6111f6816111e0565b82525050565b60006080820190506112116000830187611117565b61121e60208301866111ed565b61122b6040830185611117565b6112386060830184611117565b9594505050505056fea2646970667358221220f7a0ac853065ac5ecd983e0bc09204e41534290c76c5f7058e48a1b61d4e2aca64736f6c63430008130033",
  "immutableReferences": {},
  "source": "// SPDX-License-Identifier: UNLICENSED\r\n// reference : https://eips.ethereum.org/EIPS/eip-6551\r\n\r\npragma solidity ^0.8.19;\r\n\r\nimport \"@openzeppelin/contracts/token/ERC721/IERC721.sol\";\r\nimport \"@openzeppelin/contracts/token/ERC20/IERC20.sol\";\r\nimport \"@openzeppelin/contracts/token/ERC20/IERC20.sol\";\r\nimport \"@openzeppelin/contracts/interfaces/IERC1271.sol\";\r\nimport \"@openzeppelin/contracts/utils/cryptography/SignatureChecker.sol\";\r\n\r\nimport \"@openzeppelin/contracts/token/ERC1155/IERC1155Receiver.sol\";\r\nimport \"@openzeppelin/contracts/utils/introspection/IERC165.sol\";\r\nimport \"./interfaces/IERC6551Account.sol\";\r\n\r\nimport \"./lib/MinimalReceiver.sol\";\r\nimport \"./lib/ERC6551AccountLib.sol\";\r\n\r\ncontract ERC6551Account is IERC165, IERC1271, IERC6551Account {\r\n    uint256 public nonce;\r\n\r\n    receive() external payable {}\r\n\r\n    function executeCall(\r\n        address to,\r\n        uint256 value,\r\n        bytes calldata data\r\n    ) external payable returns (bytes memory result) {\r\n        require(msg.sender == owner(), \"Not token owner\");\r\n\r\n        ++nonce;\r\n\r\n        emit TransactionExecuted(to, value, data);\r\n\r\n        bool success;\r\n        (success, result) = to.call{value: value}(data);\r\n\r\n        if (!success) {\r\n            assembly {\r\n                revert(add(result, 32), mload(result))\r\n            }\r\n        }\r\n    }\r\n\r\n    function token()\r\n        external\r\n        view\r\n        returns (\r\n            uint256,\r\n            address,\r\n            uint256\r\n        )\r\n    {\r\n        return ERC6551AccountLib.token();\r\n    }\r\n\r\n    function owner() public view returns (address) {\r\n        (uint256 chainId, address tokenContract, uint256 tokenId) = this.token();\r\n        if (chainId != block.chainid) return address(0);\r\n\r\n        return IERC721(tokenContract).ownerOf(tokenId);\r\n    }\r\n\r\n    function supportsInterface(bytes4 interfaceId) public pure returns (bool) {\r\n        return (interfaceId == type(IERC165).interfaceId ||\r\n            interfaceId == type(IERC6551Account).interfaceId);\r\n    }\r\n\r\n    function isValidSignature(bytes32 hash, bytes memory signature)\r\n        external\r\n        view\r\n        returns (bytes4 magicValue)\r\n    {\r\n        bool isValid = SignatureChecker.isValidSignatureNow(owner(), hash, signature);\r\n\r\n        if (isValid) {\r\n            return IERC1271.isValidSignature.selector;\r\n        }\r\n\r\n        return \"\";\r\n    }\r\n}",
  "sourcePath": "D:\\Chain of blox\\WarpTempus\\truffle\\contracts\\ERC-6551\\ERC6551Account.sol",
  "compiler": {
    "name": "solc",
    "version": "0.8.19+commit.7dd6d404.Emscripten.clang"
  },
  "schemaVersion": "3.4.14",
  "updatedAt": "2023-08-20T15:23:59.964Z",
  "devdoc": {
    "kind": "dev",
    "methods": {
      "isValidSignature(bytes32,bytes)": {
        "details": "Should return whether the signature provided is valid for the provided data",
        "params": {
          "hash": "Hash of the data to be signed",
          "signature": "Signature byte array associated with _data"
        }
      },
      "supportsInterface(bytes4)": {
        "details": "Returns true if this contract implements the interface defined by `interfaceId`. See the corresponding https://eips.ethereum.org/EIPS/eip-165#how-interfaces-are-identified[EIP section] to learn more about how these ids are created. This function call must use less than 30 000 gas."
      }
    },
    "version": 1
  },
  "userdoc": {
    "kind": "user",
    "methods": {},
    "version": 1
  }
}