{
  "contractName": "Forwarder",
  "abi": [
    {
      "inputs": [],
      "stateMutability": "nonpayable",
      "type": "constructor"
    },
    {
      "inputs": [],
      "name": "InvalidShortString",
      "type": "error"
    },
    {
      "inputs": [
        {
          "internalType": "string",
          "name": "str",
          "type": "string"
        }
      ],
      "name": "StringTooLong",
      "type": "error"
    },
    {
      "anonymous": false,
      "inputs": [],
      "name": "EIP712DomainChanged",
      "type": "event"
    },
    {
      "inputs": [],
      "name": "eip712Domain",
      "outputs": [
        {
          "internalType": "bytes1",
          "name": "fields",
          "type": "bytes1"
        },
        {
          "internalType": "string",
          "name": "name",
          "type": "string"
        },
        {
          "internalType": "string",
          "name": "version",
          "type": "string"
        },
        {
          "internalType": "uint256",
          "name": "chainId",
          "type": "uint256"
        },
        {
          "internalType": "address",
          "name": "verifyingContract",
          "type": "address"
        },
        {
          "internalType": "bytes32",
          "name": "salt",
          "type": "bytes32"
        },
        {
          "internalType": "uint256[]",
          "name": "extensions",
          "type": "uint256[]"
        }
      ],
      "stateMutability": "view",
      "type": "function"
    },
    {
      "inputs": [
        {
          "internalType": "address",
          "name": "from",
          "type": "address"
        }
      ],
      "name": "getNonce",
      "outputs": [
        {
          "internalType": "uint256",
          "name": "",
          "type": "uint256"
        }
      ],
      "stateMutability": "view",
      "type": "function"
    },
    {
      "inputs": [
        {
          "components": [
            {
              "internalType": "address",
              "name": "from",
              "type": "address"
            },
            {
              "internalType": "address",
              "name": "to",
              "type": "address"
            },
            {
              "internalType": "uint256",
              "name": "value",
              "type": "uint256"
            },
            {
              "internalType": "uint256",
              "name": "gas",
              "type": "uint256"
            },
            {
              "internalType": "uint256",
              "name": "nonce",
              "type": "uint256"
            },
            {
              "internalType": "bytes",
              "name": "data",
              "type": "bytes"
            }
          ],
          "internalType": "struct Forwarder.ForwardRequest",
          "name": "req",
          "type": "tuple"
        },
        {
          "internalType": "bytes",
          "name": "signature",
          "type": "bytes"
        }
      ],
      "name": "verify",
      "outputs": [
        {
          "internalType": "bool",
          "name": "",
          "type": "bool"
        }
      ],
      "stateMutability": "view",
      "type": "function"
    },
    {
      "inputs": [
        {
          "components": [
            {
              "internalType": "address",
              "name": "from",
              "type": "address"
            },
            {
              "internalType": "address",
              "name": "to",
              "type": "address"
            },
            {
              "internalType": "uint256",
              "name": "value",
              "type": "uint256"
            },
            {
              "internalType": "uint256",
              "name": "gas",
              "type": "uint256"
            },
            {
              "internalType": "uint256",
              "name": "nonce",
              "type": "uint256"
            },
            {
              "internalType": "bytes",
              "name": "data",
              "type": "bytes"
            }
          ],
          "internalType": "struct Forwarder.ForwardRequest",
          "name": "req",
          "type": "tuple"
        },
        {
          "internalType": "bytes",
          "name": "signature",
          "type": "bytes"
        }
      ],
      "name": "execute",
      "outputs": [
        {
          "internalType": "bool",
          "name": "",
          "type": "bool"
        },
        {
          "internalType": "bytes",
          "name": "",
          "type": "bytes"
        }
      ],
      "stateMutability": "payable",
      "type": "function"
    }
  ],
  "bytecode": "0x6101606040523480156200001257600080fd5b506040518060400160405280600f81526020017f47534e763220466f7277617264657200000000000000000000000000000000008152506040518060400160405280600581526020017f302e302e31000000000000000000000000000000000000000000000000000000815250620000956000836200013560201b90919060201c565b6101208181525050620000b36001826200013560201b90919060201c565b6101408181525050818051906020012060e08181525050808051906020012061010081815250504660a08181525050620000f26200018d60201b60201c565b608081815250503073ffffffffffffffffffffffffffffffffffffffff1660c08173ffffffffffffffffffffffffffffffffffffffff16815250505050620007e5565b60006020835110156200015b576200015383620001ea60201b60201c565b905062000187565b826200016d836200025760201b60201c565b60000190816200017e9190620004db565b5060ff60001b90505b92915050565b60007f8b73c3c69bb8fe3d512ecc4cf759cc79239f7b179b0ffacaa9a75d522b39400f60e051610100514630604051602001620001cf95949392919062000633565b60405160208183030381529060405280519060200120905090565b600080829050601f815111156200023a57826040517f305a27a90000000000000000000000000000000000000000000000000000000081526004016200023191906200071f565b60405180910390fd5b805181620002489062000775565b60001c1760001b915050919050565b6000819050919050565b600081519050919050565b7f4e487b7100000000000000000000000000000000000000000000000000000000600052604160045260246000fd5b7f4e487b7100000000000000000000000000000000000000000000000000000000600052602260045260246000fd5b60006002820490506001821680620002e357607f821691505b602082108103620002f957620002f86200029b565b5b50919050565b60008190508160005260206000209050919050565b60006020601f8301049050919050565b600082821b905092915050565b600060088302620003637fffffffffffffffffffffffffffffffffffffffffffffffffffffffffffffffff8262000324565b6200036f868362000324565b95508019841693508086168417925050509392505050565b6000819050919050565b6000819050919050565b6000620003bc620003b6620003b08462000387565b62000391565b62000387565b9050919050565b6000819050919050565b620003d8836200039b565b620003f0620003e782620003c3565b84845462000331565b825550505050565b600090565b62000407620003f8565b62000414818484620003cd565b505050565b5b818110156200043c5762000430600082620003fd565b6001810190506200041a565b5050565b601f8211156200048b576200045581620002ff565b620004608462000314565b8101602085101562000470578190505b620004886200047f8562000314565b83018262000419565b50505b505050565b600082821c905092915050565b6000620004b06000198460080262000490565b1980831691505092915050565b6000620004cb83836200049d565b9150826002028217905092915050565b620004e68262000261565b67ffffffffffffffff8111156200050257620005016200026c565b5b6200050e8254620002ca565b6200051b82828562000440565b600060209050601f8311600181146200055357600084156200053e578287015190505b6200054a8582620004bd565b865550620005ba565b601f1984166200056386620002ff565b60005b828110156200058d5784890151825560018201915060208501945060208101905062000566565b86831015620005ad5784890151620005a9601f8916826200049d565b8355505b6001600288020188555050505b505050505050565b6000819050919050565b620005d781620005c2565b82525050565b620005e88162000387565b82525050565b600073ffffffffffffffffffffffffffffffffffffffff82169050919050565b60006200061b82620005ee565b9050919050565b6200062d816200060e565b82525050565b600060a0820190506200064a6000830188620005cc565b620006596020830187620005cc565b620006686040830186620005cc565b620006776060830185620005dd565b62000686608083018462000622565b9695505050505050565b600082825260208201905092915050565b60005b83811015620006c1578082015181840152602081019050620006a4565b60008484015250505050565b6000601f19601f8301169050919050565b6000620006eb8262000261565b620006f7818562000690565b935062000709818560208601620006a1565b6200071481620006cd565b840191505092915050565b600060208201905081810360008301526200073b8184620006de565b905092915050565b600081519050919050565b6000819050602082019050919050565b60006200076c8251620005c2565b80915050919050565b6000620007828262000743565b826200078e846200074e565b90506200079b816200075e565b92506020821015620007de57620007d97fffffffffffffffffffffffffffffffffffffffffffffffffffffffffffffffff8360200360080262000324565b831692505b5050919050565b60805160a05160c05160e05161010051610120516101405161196a620008406000396000610403015260006103cf01526000610b1e01526000610afd015260006107dd015260006108330152600061085c015261196a6000f3fe60806040526004361061003f5760003560e01c80632d0335ab1461004457806347153f821461008157806384b0196e146100b2578063bf5d3bdb146100e3575b600080fd5b34801561005057600080fd5b5061006b60048036038101906100669190610cc2565b610120565b6040516100789190610d08565b60405180910390f35b61009b60048036038101906100969190610dac565b610169565b6040516100a9929190610ed3565b60405180910390f35b3480156100be57600080fd5b506100c76103bc565b6040516100da9796959493929190611079565b60405180910390f35b3480156100ef57600080fd5b5061010a60048036038101906101059190610dac565b6104be565b60405161011791906110fd565b60405180910390f35b6000600260008373ffffffffffffffffffffffffffffffffffffffff1673ffffffffffffffffffffffffffffffffffffffff168152602001908152602001600020549050919050565b600060606101788585856104be565b6101b7576040517f08c379a00000000000000000000000000000000000000000000000000000000081526004016101ae9061118a565b60405180910390fd5b600185608001356101c891906111d9565b600260008760000160208101906101df9190610cc2565b73ffffffffffffffffffffffffffffffffffffffff1673ffffffffffffffffffffffffffffffffffffffff168152602001908152602001600020819055506000808660200160208101906102339190610cc2565b73ffffffffffffffffffffffffffffffffffffffff1687606001358860400135898060a00190610263919061121c565b8b60000160208101906102769190610cc2565b60405160200161028893929190611306565b6040516020818303038152906040526040516102a49190611361565b600060405180830381858888f193505050503d80600081146102e2576040519150601f19603f3d011682016040523d82523d6000602084013e6102e7565b606091505b50915091508161038c57604481511015610336576040517f08c379a000000000000000000000000000000000000000000000000000000000815260040161032d906113c4565b60405180910390fd5b600481019050808060200190518101906103509190611505565b6040517f08c379a0000000000000000000000000000000000000000000000000000000008152600401610383919061154e565b60405180910390fd5b603f876060013561039d919061159f565b5a116103ac576103ab6115d0565b5b8181935093505050935093915050565b6000606080600080600060606103fc60007f000000000000000000000000000000000000000000000000000000000000000061067490919063ffffffff16565b61043060017f000000000000000000000000000000000000000000000000000000000000000061067490919063ffffffff16565b46306000801b600067ffffffffffffffff811115610451576104506113e9565b5b60405190808252806020026020018201604052801561047f5781602001602082028036833780820191505090505b507f0f00000000000000000000000000000000000000000000000000000000000000959493929190965096509650965096509650965090919293949596565b6000806105c784848080601f016020809104026020016040519081016040528093929190818152602001838380828437600081840152601f19601f820116905080830192505050505050506105b97fdd8f4b70b0f4393e889bd39128a30628a78b61816a9eb8199759e7a349657e488860000160208101906105409190610cc2565b8960200160208101906105539190610cc2565b8a604001358b606001358c608001358d8060a00190610572919061121c565b6040516105809291906115ff565b604051809103902060405160200161059e9796959493929190611618565b60405160208183030381529060405280519060200120610724565b61073e90919063ffffffff16565b90508460800135600260008760000160208101906105e59190610cc2565b73ffffffffffffffffffffffffffffffffffffffff1673ffffffffffffffffffffffffffffffffffffffff1681526020019081526020016000205414801561066a575084600001602081019061063b9190610cc2565b73ffffffffffffffffffffffffffffffffffffffff168173ffffffffffffffffffffffffffffffffffffffff16145b9150509392505050565b606060ff60001b83146106915761068a83610765565b905061071e565b81805461069d906116b6565b80601f01602080910402602001604051908101604052809291908181526020018280546106c9906116b6565b80156107165780601f106106eb57610100808354040283529160200191610716565b820191906000526020600020905b8154815290600101906020018083116106f957829003601f168201915b505050505090505b92915050565b60006107376107316107d9565b83610890565b9050919050565b600080600061074d85856108d1565b9150915061075a81610922565b819250505092915050565b6060600061077283610a88565b90506000602067ffffffffffffffff811115610791576107906113e9565b5b6040519080825280601f01601f1916602001820160405280156107c35781602001600182028036833780820191505090505b5090508181528360208201528092505050919050565b60007f000000000000000000000000000000000000000000000000000000000000000073ffffffffffffffffffffffffffffffffffffffff163073ffffffffffffffffffffffffffffffffffffffff1614801561085557507f000000000000000000000000000000000000000000000000000000000000000046145b15610882577f0000000000000000000000000000000000000000000000000000000000000000905061088d565b61088a610ad8565b90505b90565b60006040517f190100000000000000000000000000000000000000000000000000000000000081528360028201528260228201526042812091505092915050565b60008060418351036109125760008060006020860151925060408601519150606086015160001a905061090687828585610b6e565b9450945050505061091b565b60006002915091505b9250929050565b60006004811115610936576109356116e7565b5b816004811115610949576109486116e7565b5b0315610a855760016004811115610963576109626116e7565b5b816004811115610976576109756116e7565b5b036109b6576040517f08c379a00000000000000000000000000000000000000000000000000000000081526004016109ad90611762565b60405180910390fd5b600260048111156109ca576109c96116e7565b5b8160048111156109dd576109dc6116e7565b5b03610a1d576040517f08c379a0000000000000000000000000000000000000000000000000000000008152600401610a14906117ce565b60405180910390fd5b60036004811115610a3157610a306116e7565b5b816004811115610a4457610a436116e7565b5b03610a84576040517f08c379a0000000000000000000000000000000000000000000000000000000008152600401610a7b90611860565b60405180910390fd5b5b50565b60008060ff8360001c169050601f811115610acf576040517fb3512b0c00000000000000000000000000000000000000000000000000000000815260040160405180910390fd5b80915050919050565b60007f8b73c3c69bb8fe3d512ecc4cf759cc79239f7b179b0ffacaa9a75d522b39400f7f00000000000000000000000000000000000000000000000000000000000000007f00000000000000000000000000000000000000000000000000000000000000004630604051602001610b53959493929190611880565b60405160208183030381529060405280519060200120905090565b6000807f7fffffffffffffffffffffffffffffff5d576e7357a4501ddfe92f46681b20a08360001c1115610ba9576000600391509150610c47565b600060018787878760405160008152602001604052604051610bce94939291906118ef565b6020604051602081039080840390855afa158015610bf0573d6000803e3d6000fd5b505050602060405103519050600073ffffffffffffffffffffffffffffffffffffffff168173ffffffffffffffffffffffffffffffffffffffff1603610c3e57600060019250925050610c47565b80600092509250505b94509492505050565b6000604051905090565b600080fd5b600080fd5b600073ffffffffffffffffffffffffffffffffffffffff82169050919050565b6000610c8f82610c64565b9050919050565b610c9f81610c84565b8114610caa57600080fd5b50565b600081359050610cbc81610c96565b92915050565b600060208284031215610cd857610cd7610c5a565b5b6000610ce684828501610cad565b91505092915050565b6000819050919050565b610d0281610cef565b82525050565b6000602082019050610d1d6000830184610cf9565b92915050565b600080fd5b600060c08284031215610d3e57610d3d610d23565b5b81905092915050565b600080fd5b600080fd5b600080fd5b60008083601f840112610d6c57610d6b610d47565b5b8235905067ffffffffffffffff811115610d8957610d88610d4c565b5b602083019150836001820283011115610da557610da4610d51565b5b9250929050565b600080600060408486031215610dc557610dc4610c5a565b5b600084013567ffffffffffffffff811115610de357610de2610c5f565b5b610def86828701610d28565b935050602084013567ffffffffffffffff811115610e1057610e0f610c5f565b5b610e1c86828701610d56565b92509250509250925092565b60008115159050919050565b610e3d81610e28565b82525050565b600081519050919050565b600082825260208201905092915050565b60005b83811015610e7d578082015181840152602081019050610e62565b60008484015250505050565b6000601f19601f8301169050919050565b6000610ea582610e43565b610eaf8185610e4e565b9350610ebf818560208601610e5f565b610ec881610e89565b840191505092915050565b6000604082019050610ee86000830185610e34565b8181036020830152610efa8184610e9a565b90509392505050565b60007fff0000000000000000000000000000000000000000000000000000000000000082169050919050565b610f3881610f03565b82525050565b600081519050919050565b600082825260208201905092915050565b6000610f6582610f3e565b610f6f8185610f49565b9350610f7f818560208601610e5f565b610f8881610e89565b840191505092915050565b610f9c81610c84565b82525050565b6000819050919050565b610fb581610fa2565b82525050565b600081519050919050565b600082825260208201905092915050565b6000819050602082019050919050565b610ff081610cef565b82525050565b60006110028383610fe7565b60208301905092915050565b6000602082019050919050565b600061102682610fbb565b6110308185610fc6565b935061103b83610fd7565b8060005b8381101561106c5781516110538882610ff6565b975061105e8361100e565b92505060018101905061103f565b5085935050505092915050565b600060e08201905061108e600083018a610f2f565b81810360208301526110a08189610f5a565b905081810360408301526110b48188610f5a565b90506110c36060830187610cf9565b6110d06080830186610f93565b6110dd60a0830185610fac565b81810360c08301526110ef818461101b565b905098975050505050505050565b60006020820190506111126000830184610e34565b92915050565b7f4d696e696d616c466f727761726465723a207369676e617475726520646f657360008201527f206e6f74206d6174636820726571756573740000000000000000000000000000602082015250565b6000611174603283610f49565b915061117f82611118565b604082019050919050565b600060208201905081810360008301526111a381611167565b9050919050565b7f4e487b7100000000000000000000000000000000000000000000000000000000600052601160045260246000fd5b60006111e482610cef565b91506111ef83610cef565b9250828201905080821115611207576112066111aa565b5b92915050565b600080fd5b600080fd5b600080fd5b600080833560016020038436030381126112395761123861120d565b5b80840192508235915067ffffffffffffffff82111561125b5761125a611212565b5b60208301925060018202360383131561127757611276611217565b5b509250929050565b600081905092915050565b82818337600083830152505050565b60006112a5838561127f565b93506112b283858461128a565b82840190509392505050565b60008160601b9050919050565b60006112d6826112be565b9050919050565b60006112e8826112cb565b9050919050565b6113006112fb82610c84565b6112dd565b82525050565b6000611313828587611299565b915061131f82846112ef565b601482019150819050949350505050565b600061133b82610e43565b611345818561127f565b9350611355818560208601610e5f565b80840191505092915050565b600061136d8284611330565b915081905092915050565b7f5472616e73616374696f6e2072657665727465642073696c656e746c79000000600082015250565b60006113ae601d83610f49565b91506113b982611378565b602082019050919050565b600060208201905081810360008301526113dd816113a1565b9050919050565b600080fd5b7f4e487b7100000000000000000000000000000000000000000000000000000000600052604160045260246000fd5b61142182610e89565b810181811067ffffffffffffffff821117156114405761143f6113e9565b5b80604052505050565b6000611453610c50565b905061145f8282611418565b919050565b600067ffffffffffffffff82111561147f5761147e6113e9565b5b61148882610e89565b9050602081019050919050565b60006114a86114a384611464565b611449565b9050828152602081018484840111156114c4576114c36113e4565b5b6114cf848285610e5f565b509392505050565b600082601f8301126114ec576114eb610d47565b5b81516114fc848260208601611495565b91505092915050565b60006020828403121561151b5761151a610c5a565b5b600082015167ffffffffffffffff81111561153957611538610c5f565b5b611545848285016114d7565b91505092915050565b600060208201905081810360008301526115688184610f5a565b905092915050565b7f4e487b7100000000000000000000000000000000000000000000000000000000600052601260045260246000fd5b60006115aa82610cef565b91506115b583610cef565b9250826115c5576115c4611570565b5b828204905092915050565b7f4e487b7100000000000000000000000000000000000000000000000000000000600052600160045260246000fd5b600061160c828486611299565b91508190509392505050565b600060e08201905061162d600083018a610fac565b61163a6020830189610f93565b6116476040830188610f93565b6116546060830187610cf9565b6116616080830186610cf9565b61166e60a0830185610cf9565b61167b60c0830184610fac565b98975050505050505050565b7f4e487b7100000000000000000000000000000000000000000000000000000000600052602260045260246000fd5b600060028204905060018216806116ce57607f821691505b6020821081036116e1576116e0611687565b5b50919050565b7f4e487b7100000000000000000000000000000000000000000000000000000000600052602160045260246000fd5b7f45434453413a20696e76616c6964207369676e61747572650000000000000000600082015250565b600061174c601883610f49565b915061175782611716565b602082019050919050565b6000602082019050818103600083015261177b8161173f565b9050919050565b7f45434453413a20696e76616c6964207369676e6174757265206c656e67746800600082015250565b60006117b8601f83610f49565b91506117c382611782565b602082019050919050565b600060208201905081810360008301526117e7816117ab565b9050919050565b7f45434453413a20696e76616c6964207369676e6174757265202773272076616c60008201527f7565000000000000000000000000000000000000000000000000000000000000602082015250565b600061184a602283610f49565b9150611855826117ee565b604082019050919050565b600060208201905081810360008301526118798161183d565b9050919050565b600060a0820190506118956000830188610fac565b6118a26020830187610fac565b6118af6040830186610fac565b6118bc6060830185610cf9565b6118c96080830184610f93565b9695505050505050565b600060ff82169050919050565b6118e9816118d3565b82525050565b60006080820190506119046000830187610fac565b61191160208301866118e0565b61191e6040830185610fac565b61192b6060830184610fac565b9594505050505056fea264697066735822122031d62c1ab00cbcc9cf2fefee0a542a0fe2e8b8eae7ac461a66a6f724a9d7dd1364736f6c63430008130033",
  "immutableReferences": {
    "2802": [
      {
        "length": 32,
        "start": 2140
      }
    ],
    "2804": [
      {
        "length": 32,
        "start": 2099
      }
    ],
    "2806": [
      {
        "length": 32,
        "start": 2013
      }
    ],
    "2808": [
      {
        "length": 32,
        "start": 2813
      }
    ],
    "2810": [
      {
        "length": 32,
        "start": 2846
      }
    ],
    "2813": [
      {
        "length": 32,
        "start": 975
      }
    ],
    "2816": [
      {
        "length": 32,
        "start": 1027
      }
    ]
  },
  "source": "// SPDX-License-Identifier: Apache 2.0\r\npragma solidity ^0.8.0;\r\n\r\n// This forwarder is deployed to linea goerli\r\n\r\n/// @author thirdweb\r\n\r\n//   $$\\     $$\\       $$\\                 $$\\                         $$\\\r\n//   $$ |    $$ |      \\__|                $$ |                        $$ |\r\n// $$$$$$\\   $$$$$$$\\  $$\\  $$$$$$\\   $$$$$$$ |$$\\  $$\\  $$\\  $$$$$$\\  $$$$$$$\\\r\n// \\_$$  _|  $$  __$$\\ $$ |$$  __$$\\ $$  __$$ |$$ | $$ | $$ |$$  __$$\\ $$  __$$\\\r\n//   $$ |    $$ |  $$ |$$ |$$ |  \\__|$$ /  $$ |$$ | $$ | $$ |$$$$$$$$ |$$ |  $$ |\r\n//   $$ |$$\\ $$ |  $$ |$$ |$$ |      $$ |  $$ |$$ | $$ | $$ |$$   ____|$$ |  $$ |\r\n//   \\$$$$  |$$ |  $$ |$$ |$$ |      \\$$$$$$$ |\\$$$$$\\$$$$  |\\$$$$$$$\\ $$$$$$$  |\r\n//    \\____/ \\__|  \\__|\\__|\\__|       \\_______| \\_____\\____/  \\_______|\\_______/\r\n\r\nimport \"@openzeppelin/contracts/utils/cryptography/ECDSA.sol\";\r\nimport \"@openzeppelin/contracts/utils/cryptography/draft-EIP712.sol\";\r\n\r\n/*\r\n * @dev Minimal forwarder for GSNv2\r\n */\r\ncontract Forwarder is EIP712 {\r\n    using ECDSA for bytes32;\r\n\r\n    struct ForwardRequest {\r\n        address from;\r\n        address to;\r\n        uint256 value;\r\n        uint256 gas;\r\n        uint256 nonce;\r\n        bytes data;\r\n    }\r\n\r\n    bytes32 private constant TYPEHASH =\r\n        keccak256(\"ForwardRequest(address from,address to,uint256 value,uint256 gas,uint256 nonce,bytes data)\");\r\n\r\n    mapping(address => uint256) private _nonces;\r\n\r\n    constructor() EIP712(\"GSNv2 Forwarder\", \"0.0.1\") {}\r\n\r\n    function getNonce(address from) public view returns (uint256) {\r\n        return _nonces[from];\r\n    }\r\n\r\n    function verify(ForwardRequest calldata req, bytes calldata signature) public view returns (bool) {\r\n        address signer = _hashTypedDataV4(\r\n            keccak256(abi.encode(TYPEHASH, req.from, req.to, req.value, req.gas, req.nonce, keccak256(req.data)))\r\n        ).recover(signature);\r\n\r\n        return _nonces[req.from] == req.nonce && signer == req.from;\r\n    }\r\n\r\n    function execute(ForwardRequest calldata req, bytes calldata signature)\r\n        public\r\n        payable\r\n        returns (bool, bytes memory)\r\n    {\r\n        require(verify(req, signature), \"MinimalForwarder: signature does not match request\");\r\n        _nonces[req.from] = req.nonce + 1;\r\n\r\n        // solhint-disable-next-line avoid-low-level-calls\r\n        (bool success, bytes memory result) = req.to.call{ gas: req.gas, value: req.value }(\r\n            abi.encodePacked(req.data, req.from)\r\n        );\r\n\r\n        if (!success) {\r\n            // Next 5 lines from https://ethereum.stackexchange.com/a/83577\r\n            if (result.length < 68) revert(\"Transaction reverted silently\");\r\n            assembly {\r\n                result := add(result, 0x04)\r\n            }\r\n            revert(abi.decode(result, (string)));\r\n        }\r\n        // Check gas: https://ronan.eth.link/blog/ethereum-gas-dangers/\r\n        assert(gasleft() > req.gas / 63);\r\n        return (success, result);\r\n    }\r\n}",
  "sourcePath": "D:\\Chain of blox\\WarpTempus\\truffle\\contracts\\Forwarder.sol",
  "compiler": {
    "name": "solc",
    "version": "0.8.19+commit.7dd6d404.Emscripten.clang"
  },
  "schemaVersion": "3.4.14",
  "updatedAt": "2023-08-20T15:24:00.024Z",
  "devdoc": {
    "events": {
      "EIP712DomainChanged()": {
        "details": "MAY be emitted to signal that the domain could have changed."
      }
    },
    "kind": "dev",
    "methods": {
      "eip712Domain()": {
        "details": "See {EIP-5267}. _Available since v4.9._"
      }
    },
    "version": 1
  },
  "userdoc": {
    "kind": "user",
    "methods": {},
    "version": 1
  }
}