{
  "contractName": "Token",
  "abi": [
    {
      "inputs": [
        {
          "internalType": "string",
          "name": "_name",
          "type": "string"
        },
        {
          "internalType": "string",
          "name": "_symbol",
          "type": "string"
        },
        {
          "internalType": "uint256",
          "name": "_totalSupply",
          "type": "uint256"
        }
      ],
      "stateMutability": "nonpayable",
      "type": "constructor"
    },
    {
      "anonymous": false,
      "inputs": [
        {
          "indexed": true,
          "internalType": "address",
          "name": "owner",
          "type": "address"
        },
        {
          "indexed": true,
          "internalType": "address",
          "name": "spender",
          "type": "address"
        },
        {
          "indexed": false,
          "internalType": "uint256",
          "name": "value",
          "type": "uint256"
        }
      ],
      "name": "Approval",
      "type": "event"
    },
    {
      "anonymous": false,
      "inputs": [
        {
          "indexed": true,
          "internalType": "address",
          "name": "from",
          "type": "address"
        },
        {
          "indexed": true,
          "internalType": "address",
          "name": "to",
          "type": "address"
        },
        {
          "indexed": false,
          "internalType": "uint256",
          "name": "value",
          "type": "uint256"
        }
      ],
      "name": "Transfer",
      "type": "event"
    },
    {
      "inputs": [
        {
          "internalType": "address",
          "name": "",
          "type": "address"
        },
        {
          "internalType": "address",
          "name": "",
          "type": "address"
        }
      ],
      "name": "allowance",
      "outputs": [
        {
          "internalType": "uint256",
          "name": "",
          "type": "uint256"
        }
      ],
      "stateMutability": "view",
      "type": "function"
    },
    {
      "inputs": [
        {
          "internalType": "address",
          "name": "",
          "type": "address"
        }
      ],
      "name": "balanceOf",
      "outputs": [
        {
          "internalType": "uint256",
          "name": "",
          "type": "uint256"
        }
      ],
      "stateMutability": "view",
      "type": "function"
    },
    {
      "inputs": [],
      "name": "decimals",
      "outputs": [
        {
          "internalType": "uint8",
          "name": "",
          "type": "uint8"
        }
      ],
      "stateMutability": "view",
      "type": "function"
    },
    {
      "inputs": [],
      "name": "name",
      "outputs": [
        {
          "internalType": "string",
          "name": "",
          "type": "string"
        }
      ],
      "stateMutability": "view",
      "type": "function"
    },
    {
      "inputs": [],
      "name": "symbol",
      "outputs": [
        {
          "internalType": "string",
          "name": "",
          "type": "string"
        }
      ],
      "stateMutability": "view",
      "type": "function"
    },
    {
      "inputs": [],
      "name": "totalSupply",
      "outputs": [
        {
          "internalType": "uint256",
          "name": "",
          "type": "uint256"
        }
      ],
      "stateMutability": "view",
      "type": "function"
    },
    {
      "inputs": [
        {
          "internalType": "address",
          "name": "_to",
          "type": "address"
        },
        {
          "internalType": "uint256",
          "name": "_value",
          "type": "uint256"
        }
      ],
      "name": "transfer",
      "outputs": [
        {
          "internalType": "bool",
          "name": "success",
          "type": "bool"
        }
      ],
      "stateMutability": "nonpayable",
      "type": "function"
    },
    {
      "inputs": [
        {
          "internalType": "address",
          "name": "_spender",
          "type": "address"
        },
        {
          "internalType": "uint256",
          "name": "_value",
          "type": "uint256"
        }
      ],
      "name": "approve",
      "outputs": [
        {
          "internalType": "bool",
          "name": "success",
          "type": "bool"
        }
      ],
      "stateMutability": "nonpayable",
      "type": "function"
    },
    {
      "inputs": [
        {
          "internalType": "address",
          "name": "_from",
          "type": "address"
        },
        {
          "internalType": "address",
          "name": "_to",
          "type": "address"
        },
        {
          "internalType": "uint256",
          "name": "_value",
          "type": "uint256"
        }
      ],
      "name": "transferFrom",
      "outputs": [
        {
          "internalType": "bool",
          "name": "success",
          "type": "bool"
        }
      ],
      "stateMutability": "nonpayable",
      "type": "function"
    },
    {
      "inputs": [
        {
          "internalType": "address",
          "name": "_to",
          "type": "address"
        },
        {
          "internalType": "uint256",
          "name": "_value",
          "type": "uint256"
        }
      ],
      "name": "claim",
      "outputs": [
        {
          "internalType": "bool",
          "name": "success",
          "type": "bool"
        }
      ],
      "stateMutability": "nonpayable",
      "type": "function"
    }
  ],
  "bytecode": "0x60806040526012600260006101000a81548160ff021916908360ff1602179055503480156200002d57600080fd5b5060405162001848380380620018488339818101604052810190620000539190620002c5565b8260009081620000649190620005a0565b508160019081620000769190620005a0565b50600260009054906101000a900460ff16600a62000095919062000817565b81620000a2919062000868565b600381905550600354600460003073ffffffffffffffffffffffffffffffffffffffff1673ffffffffffffffffffffffffffffffffffffffff16815260200190815260200160002081905550505050620008b3565b6000604051905090565b600080fd5b600080fd5b600080fd5b600080fd5b6000601f19601f8301169050919050565b7f4e487b7100000000000000000000000000000000000000000000000000000000600052604160045260246000fd5b620001608262000115565b810181811067ffffffffffffffff8211171562000182576200018162000126565b5b80604052505050565b600062000197620000f7565b9050620001a5828262000155565b919050565b600067ffffffffffffffff821115620001c857620001c762000126565b5b620001d38262000115565b9050602081019050919050565b60005b8381101562000200578082015181840152602081019050620001e3565b60008484015250505050565b6000620002236200021d84620001aa565b6200018b565b90508281526020810184848401111562000242576200024162000110565b5b6200024f848285620001e0565b509392505050565b600082601f8301126200026f576200026e6200010b565b5b8151620002818482602086016200020c565b91505092915050565b6000819050919050565b6200029f816200028a565b8114620002ab57600080fd5b50565b600081519050620002bf8162000294565b92915050565b600080600060608486031215620002e157620002e062000101565b5b600084015167ffffffffffffffff81111562000302576200030162000106565b5b620003108682870162000257565b935050602084015167ffffffffffffffff81111562000334576200033362000106565b5b620003428682870162000257565b92505060406200035586828701620002ae565b9150509250925092565b600081519050919050565b7f4e487b7100000000000000000000000000000000000000000000000000000000600052602260045260246000fd5b60006002820490506001821680620003b257607f821691505b602082108103620003c857620003c76200036a565b5b50919050565b60008190508160005260206000209050919050565b60006020601f8301049050919050565b600082821b905092915050565b600060088302620004327fffffffffffffffffffffffffffffffffffffffffffffffffffffffffffffffff82620003f3565b6200043e8683620003f3565b95508019841693508086168417925050509392505050565b6000819050919050565b6000620004816200047b62000475846200028a565b62000456565b6200028a565b9050919050565b6000819050919050565b6200049d8362000460565b620004b5620004ac8262000488565b84845462000400565b825550505050565b600090565b620004cc620004bd565b620004d981848462000492565b505050565b5b818110156200050157620004f5600082620004c2565b600181019050620004df565b5050565b601f82111562000550576200051a81620003ce565b6200052584620003e3565b8101602085101562000535578190505b6200054d6200054485620003e3565b830182620004de565b50505b505050565b600082821c905092915050565b6000620005756000198460080262000555565b1980831691505092915050565b600062000590838362000562565b9150826002028217905092915050565b620005ab826200035f565b67ffffffffffffffff811115620005c757620005c662000126565b5b620005d3825462000399565b620005e082828562000505565b600060209050601f83116001811462000618576000841562000603578287015190505b6200060f858262000582565b8655506200067f565b601f1984166200062886620003ce565b60005b8281101562000652578489015182556001820191506020850194506020810190506200062b565b868310156200067257848901516200066e601f89168262000562565b8355505b6001600288020188555050505b505050505050565b7f4e487b7100000000000000000000000000000000000000000000000000000000600052601160045260246000fd5b60008160011c9050919050565b6000808291508390505b60018511156200071557808604811115620006ed57620006ec62000687565b5b6001851615620006fd5780820291505b80810290506200070d85620006b6565b9450620006cd565b94509492505050565b60008262000730576001905062000803565b8162000740576000905062000803565b816001811462000759576002811462000764576200079a565b600191505062000803565b60ff84111562000779576200077862000687565b5b8360020a91508482111562000793576200079262000687565b5b5062000803565b5060208310610133831016604e8410600b8410161715620007d45782820a905083811115620007ce57620007cd62000687565b5b62000803565b620007e38484846001620006c3565b92509050818404811115620007fd57620007fc62000687565b5b81810290505b9392505050565b600060ff82169050919050565b600062000824826200028a565b915062000831836200080a565b9250620008607fffffffffffffffffffffffffffffffffffffffffffffffffffffffffffffffff84846200071e565b905092915050565b600062000875826200028a565b915062000882836200028a565b925082820262000892816200028a565b91508282048414831517620008ac57620008ab62000687565b5b5092915050565b610f8580620008c36000396000f3fe608060405234801561001057600080fd5b506004361061009e5760003560e01c806370a082311161006657806370a082311461015d57806395d89b411461018d578063a9059cbb146101ab578063aad3ec96146101db578063dd62ed3e1461020b5761009e565b806306fdde03146100a3578063095ea7b3146100c157806318160ddd146100f157806323b872dd1461010f578063313ce5671461013f575b600080fd5b6100ab61023b565b6040516100b89190610ac2565b60405180910390f35b6100db60048036038101906100d69190610b7d565b6102c9565b6040516100e89190610bd8565b60405180910390f35b6100f9610429565b6040516101069190610c02565b60405180910390f35b61012960048036038101906101249190610c1d565b61042f565b6040516101369190610bd8565b60405180910390f35b61014761061b565b6040516101549190610c8c565b60405180910390f35b61017760048036038101906101729190610ca7565b61062e565b6040516101849190610c02565b60405180910390f35b610195610646565b6040516101a29190610ac2565b60405180910390f35b6101c560048036038101906101c09190610b7d565b6106d4565b6040516101d29190610bd8565b60405180910390f35b6101f560048036038101906101f09190610b7d565b61076d565b6040516102029190610bd8565b60405180910390f35b61022560048036038101906102209190610cd4565b610806565b6040516102329190610c02565b60405180910390f35b6000805461024890610d43565b80601f016020809104026020016040519081016040528092919081815260200182805461027490610d43565b80156102c15780601f10610296576101008083540402835291602001916102c1565b820191906000526020600020905b8154815290600101906020018083116102a457829003601f168201915b505050505081565b60008073ffffffffffffffffffffffffffffffffffffffff168373ffffffffffffffffffffffffffffffffffffffff1603610339576040517f08c379a000000000000000000000000000000000000000000000000000000000815260040161033090610dc0565b60405180910390fd5b81600560003373ffffffffffffffffffffffffffffffffffffffff1673ffffffffffffffffffffffffffffffffffffffff16815260200190815260200160002060008573ffffffffffffffffffffffffffffffffffffffff1673ffffffffffffffffffffffffffffffffffffffff168152602001908152602001600020819055508273ffffffffffffffffffffffffffffffffffffffff163373ffffffffffffffffffffffffffffffffffffffff167f8c5be1e5ebec7d5bd14f71427d1e84f3dd0314c0f7b2291e5b200ac8c7c3b925846040516104179190610c02565b60405180910390a36001905092915050565b60035481565b6000600460008573ffffffffffffffffffffffffffffffffffffffff1673ffffffffffffffffffffffffffffffffffffffff168152602001908152602001600020548211156104b3576040517f08c379a00000000000000000000000000000000000000000000000000000000081526004016104aa90610e2c565b60405180910390fd5b600560008573ffffffffffffffffffffffffffffffffffffffff1673ffffffffffffffffffffffffffffffffffffffff16815260200190815260200160002060003373ffffffffffffffffffffffffffffffffffffffff1673ffffffffffffffffffffffffffffffffffffffff16815260200190815260200160002054821115610572576040517f08c379a000000000000000000000000000000000000000000000000000000000815260040161056990610e98565b60405180910390fd5b81600560008673ffffffffffffffffffffffffffffffffffffffff1673ffffffffffffffffffffffffffffffffffffffff16815260200190815260200160002060003373ffffffffffffffffffffffffffffffffffffffff1673ffffffffffffffffffffffffffffffffffffffff16815260200190815260200160002060008282546105fe9190610ee7565b9250508190555061061084848461082b565b600190509392505050565b600260009054906101000a900460ff1681565b60046020528060005260406000206000915090505481565b6001805461065390610d43565b80601f016020809104026020016040519081016040528092919081815260200182805461067f90610d43565b80156106cc5780601f106106a1576101008083540402835291602001916106cc565b820191906000526020600020905b8154815290600101906020018083116106af57829003601f168201915b505050505081565b600081600460003373ffffffffffffffffffffffffffffffffffffffff1673ffffffffffffffffffffffffffffffffffffffff168152602001908152602001600020541015610758576040517f08c379a000000000000000000000000000000000000000000000000000000000815260040161074f90610e2c565b60405180910390fd5b61076333848461082b565b6001905092915050565b600081600460003073ffffffffffffffffffffffffffffffffffffffff1673ffffffffffffffffffffffffffffffffffffffff1681526020019081526020016000205410156107f1576040517f08c379a00000000000000000000000000000000000000000000000000000000081526004016107e890610e2c565b60405180910390fd5b6107fc30848461082b565b6001905092915050565b6005602052816000526040600020602052806000526040600020600091509150505481565b600073ffffffffffffffffffffffffffffffffffffffff168273ffffffffffffffffffffffffffffffffffffffff160361089a576040517f08c379a000000000000000000000000000000000000000000000000000000000815260040161089190610dc0565b60405180910390fd5b80600460008573ffffffffffffffffffffffffffffffffffffffff1673ffffffffffffffffffffffffffffffffffffffff16815260200190815260200160002054101561091c576040517f08c379a000000000000000000000000000000000000000000000000000000000815260040161091390610e2c565b60405180910390fd5b80600460008573ffffffffffffffffffffffffffffffffffffffff1673ffffffffffffffffffffffffffffffffffffffff168152602001908152602001600020600082825461096b9190610ee7565b9250508190555080600460008473ffffffffffffffffffffffffffffffffffffffff1673ffffffffffffffffffffffffffffffffffffffff16815260200190815260200160002060008282546109c19190610f1b565b925050819055508173ffffffffffffffffffffffffffffffffffffffff168373ffffffffffffffffffffffffffffffffffffffff167fddf252ad1be2c89b69c2b068fc378daa952ba7f163c4a11628f55a4df523b3ef83604051610a259190610c02565b60405180910390a3505050565b600081519050919050565b600082825260208201905092915050565b60005b83811015610a6c578082015181840152602081019050610a51565b60008484015250505050565b6000601f19601f8301169050919050565b6000610a9482610a32565b610a9e8185610a3d565b9350610aae818560208601610a4e565b610ab781610a78565b840191505092915050565b60006020820190508181036000830152610adc8184610a89565b905092915050565b600080fd5b600073ffffffffffffffffffffffffffffffffffffffff82169050919050565b6000610b1482610ae9565b9050919050565b610b2481610b09565b8114610b2f57600080fd5b50565b600081359050610b4181610b1b565b92915050565b6000819050919050565b610b5a81610b47565b8114610b6557600080fd5b50565b600081359050610b7781610b51565b92915050565b60008060408385031215610b9457610b93610ae4565b5b6000610ba285828601610b32565b9250506020610bb385828601610b68565b9150509250929050565b60008115159050919050565b610bd281610bbd565b82525050565b6000602082019050610bed6000830184610bc9565b92915050565b610bfc81610b47565b82525050565b6000602082019050610c176000830184610bf3565b92915050565b600080600060608486031215610c3657610c35610ae4565b5b6000610c4486828701610b32565b9350506020610c5586828701610b32565b9250506040610c6686828701610b68565b9150509250925092565b600060ff82169050919050565b610c8681610c70565b82525050565b6000602082019050610ca16000830184610c7d565b92915050565b600060208284031215610cbd57610cbc610ae4565b5b6000610ccb84828501610b32565b91505092915050565b60008060408385031215610ceb57610cea610ae4565b5b6000610cf985828601610b32565b9250506020610d0a85828601610b32565b9150509250929050565b7f4e487b7100000000000000000000000000000000000000000000000000000000600052602260045260246000fd5b60006002820490506001821680610d5b57607f821691505b602082108103610d6e57610d6d610d14565b5b50919050565b7f496e76616c696420616464726573730000000000000000000000000000000000600082015250565b6000610daa600f83610a3d565b9150610db582610d74565b602082019050919050565b60006020820190508181036000830152610dd981610d9d565b9050919050565b7f496e73756666696369656e742062616c616e6365000000000000000000000000600082015250565b6000610e16601483610a3d565b9150610e2182610de0565b602082019050919050565b60006020820190508181036000830152610e4581610e09565b9050919050565b7f496e73756666696369656e7420616c6c6f77616e636500000000000000000000600082015250565b6000610e82601683610a3d565b9150610e8d82610e4c565b602082019050919050565b60006020820190508181036000830152610eb181610e75565b9050919050565b7f4e487b7100000000000000000000000000000000000000000000000000000000600052601160045260246000fd5b6000610ef282610b47565b9150610efd83610b47565b9250828203905081811115610f1557610f14610eb8565b5b92915050565b6000610f2682610b47565b9150610f3183610b47565b9250828201905080821115610f4957610f48610eb8565b5b9291505056fea264697066735822122067533c6f8216e8b3ffc2b972d98334d023dca197d74e931f56447a32252a0eb964736f6c63430008130033",
  "immutableReferences": {},
  "source": "// SPDX-License-Identifier: MIT\r\npragma solidity ^0.8.0;\r\n\r\ncontract Token{\r\n    string public name;\r\n    string public symbol;\r\n    uint8 public decimals=18;\r\n    uint256 public totalSupply;\r\n\r\n    mapping(address=>uint256) public balanceOf;\r\n    mapping(address=>mapping(address=>uint256)) public allowance;\r\n\r\n    event Transfer(address indexed from, address indexed to, uint256 value);\r\n    event Approval(address indexed owner,address indexed spender,uint256 value);\r\n\r\n    constructor(string memory _name,string memory _symbol,uint256 _totalSupply){\r\n        name=_name;\r\n        symbol=_symbol;\r\n        totalSupply=_totalSupply*(10**decimals);\r\n        balanceOf[address(this)]=totalSupply;\r\n    }\r\n\r\n    function _transfer(address _from, address _to, uint256 _value) internal{\r\n        require(_to!=address(0),\"Invalid address\");\r\n        require(balanceOf[_from]>=_value,\"Insufficient balance\");\r\n        balanceOf[_from]-=_value;\r\n        balanceOf[_to]+=_value;\r\n        emit Transfer(_from,_to,_value);\r\n    }\r\n\r\n    function transfer(address _to, uint256 _value) public returns(bool success){\r\n        require(balanceOf[msg.sender]>=_value,\"Insufficient balance\");\r\n       _transfer(msg.sender,_to,_value);\r\n        return true;\r\n    }\r\n\r\n    function approve(address _spender, uint256 _value) public returns(bool success){\r\n         require(_spender!=address(0),\"Invalid address\");\r\n         allowance[msg.sender][_spender]=_value;\r\n         emit Approval(msg.sender,_spender,_value);\r\n         return true;\r\n    }\r\n\r\n  function transferFrom(address _from, address _to, uint _value) public returns (bool success){\r\n     require(_value<=balanceOf[_from],\"Insufficient balance\");\r\n     require(_value<=allowance[_from][msg.sender],\"Insufficient allowance\");\r\n     allowance[_from][msg.sender]-=_value;\r\n     _transfer(_from, _to, _value);\r\n     return true;\r\n  }\r\n\r\n  function claim(address _to,uint256 _value) public returns(bool success){\r\n       require(balanceOf[address(this)]>=_value,\"Insufficient balance\");\r\n      _transfer(address(this),_to,_value);\r\n      return true;\r\n  }\r\n\r\n}",
  "sourcePath": "D:\\Chain of blox\\WarpTempus\\truffle\\contracts\\Token.sol",
  "compiler": {
    "name": "solc",
    "version": "0.8.19+commit.7dd6d404.Emscripten.clang"
  },
  "schemaVersion": "3.4.14",
  "updatedAt": "2023-08-20T15:24:07.484Z",
  "networkType": "ethereum",
  "devdoc": {
    "kind": "dev",
    "methods": {},
    "version": 1
  },
  "userdoc": {
    "kind": "user",
    "methods": {},
    "version": 1
  }
}