{
  "contractName": "Token",
  "abi": [
    {
      "inputs": [
        {
          "internalType": "string",
          "name": "_name",
          "type": "string"
        },
        {
          "internalType": "string",
          "name": "_symbol",
          "type": "string"
        },
        {
          "internalType": "uint256",
          "name": "_totalSupply",
          "type": "uint256"
        }
      ],
      "stateMutability": "nonpayable",
      "type": "constructor"
    },
    {
      "anonymous": false,
      "inputs": [
        {
          "indexed": true,
          "internalType": "address",
          "name": "owner",
          "type": "address"
        },
        {
          "indexed": true,
          "internalType": "address",
          "name": "spender",
          "type": "address"
        },
        {
          "indexed": false,
          "internalType": "uint256",
          "name": "value",
          "type": "uint256"
        }
      ],
      "name": "Approval",
      "type": "event"
    },
    {
      "anonymous": false,
      "inputs": [
        {
          "indexed": true,
          "internalType": "address",
          "name": "from",
          "type": "address"
        },
        {
          "indexed": true,
          "internalType": "address",
          "name": "to",
          "type": "address"
        },
        {
          "indexed": false,
          "internalType": "uint256",
          "name": "value",
          "type": "uint256"
        }
      ],
      "name": "Transfer",
      "type": "event"
    },
    {
      "inputs": [
        {
          "internalType": "address",
          "name": "",
          "type": "address"
        },
        {
          "internalType": "address",
          "name": "",
          "type": "address"
        }
      ],
      "name": "allowance",
      "outputs": [
        {
          "internalType": "uint256",
          "name": "",
          "type": "uint256"
        }
      ],
      "stateMutability": "view",
      "type": "function",
      "constant": true
    },
    {
      "inputs": [
        {
          "internalType": "address",
          "name": "",
          "type": "address"
        }
      ],
      "name": "balanceOf",
      "outputs": [
        {
          "internalType": "uint256",
          "name": "",
          "type": "uint256"
        }
      ],
      "stateMutability": "view",
      "type": "function",
      "constant": true
    },
    {
      "inputs": [],
      "name": "decimals",
      "outputs": [
        {
          "internalType": "uint8",
          "name": "",
          "type": "uint8"
        }
      ],
      "stateMutability": "view",
      "type": "function",
      "constant": true
    },
    {
      "inputs": [],
      "name": "name",
      "outputs": [
        {
          "internalType": "string",
          "name": "",
          "type": "string"
        }
      ],
      "stateMutability": "view",
      "type": "function",
      "constant": true
    },
    {
      "inputs": [],
      "name": "symbol",
      "outputs": [
        {
          "internalType": "string",
          "name": "",
          "type": "string"
        }
      ],
      "stateMutability": "view",
      "type": "function",
      "constant": true
    },
    {
      "inputs": [],
      "name": "totalSupply",
      "outputs": [
        {
          "internalType": "uint256",
          "name": "",
          "type": "uint256"
        }
      ],
      "stateMutability": "view",
      "type": "function",
      "constant": true
    },
    {
      "inputs": [
        {
          "internalType": "address",
          "name": "_to",
          "type": "address"
        },
        {
          "internalType": "uint256",
          "name": "_value",
          "type": "uint256"
        }
      ],
      "name": "transfer",
      "outputs": [
        {
          "internalType": "bool",
          "name": "success",
          "type": "bool"
        }
      ],
      "stateMutability": "nonpayable",
      "type": "function"
    },
    {
      "inputs": [
        {
          "internalType": "address",
          "name": "_spender",
          "type": "address"
        },
        {
          "internalType": "uint256",
          "name": "_value",
          "type": "uint256"
        }
      ],
      "name": "approve",
      "outputs": [
        {
          "internalType": "bool",
          "name": "success",
          "type": "bool"
        }
      ],
      "stateMutability": "nonpayable",
      "type": "function"
    },
    {
      "inputs": [
        {
          "internalType": "address",
          "name": "_from",
          "type": "address"
        },
        {
          "internalType": "address",
          "name": "_to",
          "type": "address"
        },
        {
          "internalType": "uint256",
          "name": "_value",
          "type": "uint256"
        }
      ],
      "name": "transferFrom",
      "outputs": [
        {
          "internalType": "bool",
          "name": "success",
          "type": "bool"
        }
      ],
      "stateMutability": "nonpayable",
      "type": "function"
    },
    {
      "inputs": [
        {
          "internalType": "address",
          "name": "_to",
          "type": "address"
        },
        {
          "internalType": "uint256",
          "name": "_value",
          "type": "uint256"
        }
      ],
      "name": "claim",
      "outputs": [
        {
          "internalType": "bool",
          "name": "success",
          "type": "bool"
        }
      ],
      "stateMutability": "nonpayable",
      "type": "function"
    }
  ],
  "bytecode": "0x60806040526012600260006101000a81548160ff021916908360ff1602179055503480156200002d57600080fd5b50604051620016913803806200169183398181016040528101906200005391906200038d565b82600090805190602001906200006b92919062000105565b5081600190805190602001906200008492919062000105565b50600260009054906101000a900460ff16600a620000a39190620005b7565b81620000b0919062000608565b600381905550600354600460003073ffffffffffffffffffffffffffffffffffffffff1673ffffffffffffffffffffffffffffffffffffffff16815260200190815260200160002081905550505050620006ce565b828054620001139062000698565b90600052602060002090601f01602090048101928262000137576000855562000183565b82601f106200015257805160ff191683800117855562000183565b8280016001018555821562000183579182015b828111156200018257825182559160200191906001019062000165565b5b50905062000192919062000196565b5090565b5b80821115620001b157600081600090555060010162000197565b5090565b6000604051905090565b600080fd5b600080fd5b600080fd5b600080fd5b6000601f19601f8301169050919050565b7f4e487b7100000000000000000000000000000000000000000000000000000000600052604160045260246000fd5b6200021e82620001d3565b810181811067ffffffffffffffff8211171562000240576200023f620001e4565b5b80604052505050565b600062000255620001b5565b905062000263828262000213565b919050565b600067ffffffffffffffff821115620002865762000285620001e4565b5b6200029182620001d3565b9050602081019050919050565b60005b83811015620002be578082015181840152602081019050620002a1565b83811115620002ce576000848401525b50505050565b6000620002eb620002e58462000268565b62000249565b9050828152602081018484840111156200030a5762000309620001ce565b5b620003178482856200029e565b509392505050565b600082601f830112620003375762000336620001c9565b5b815162000349848260208601620002d4565b91505092915050565b6000819050919050565b620003678162000352565b81146200037357600080fd5b50565b60008151905062000387816200035c565b92915050565b600080600060608486031215620003a957620003a8620001bf565b5b600084015167ffffffffffffffff811115620003ca57620003c9620001c4565b5b620003d8868287016200031f565b935050602084015167ffffffffffffffff811115620003fc57620003fb620001c4565b5b6200040a868287016200031f565b92505060406200041d8682870162000376565b9150509250925092565b7f4e487b7100000000000000000000000000000000000000000000000000000000600052601160045260246000fd5b60008160011c9050919050565b6000808291508390505b6001851115620004b5578086048111156200048d576200048c62000427565b5b60018516156200049d5780820291505b8081029050620004ad8562000456565b94506200046d565b94509492505050565b600082620004d05760019050620005a3565b81620004e05760009050620005a3565b8160018114620004f9576002811462000504576200053a565b6001915050620005a3565b60ff84111562000519576200051862000427565b5b8360020a91508482111562000533576200053262000427565b5b50620005a3565b5060208310610133831016604e8410600b8410161715620005745782820a9050838111156200056e576200056d62000427565b5b620005a3565b62000583848484600162000463565b925090508184048111156200059d576200059c62000427565b5b81810290505b9392505050565b600060ff82169050919050565b6000620005c48262000352565b9150620005d183620005aa565b9250620006007fffffffffffffffffffffffffffffffffffffffffffffffffffffffffffffffff8484620004be565b905092915050565b6000620006158262000352565b9150620006228362000352565b9250817fffffffffffffffffffffffffffffffffffffffffffffffffffffffffffffffff04831182151516156200065e576200065d62000427565b5b828202905092915050565b7f4e487b7100000000000000000000000000000000000000000000000000000000600052602260045260246000fd5b60006002820490506001821680620006b157607f821691505b60208210811415620006c857620006c762000669565b5b50919050565b610fb380620006de6000396000f3fe608060405234801561001057600080fd5b506004361061009e5760003560e01c806370a082311161006657806370a082311461015d57806395d89b411461018d578063a9059cbb146101ab578063aad3ec96146101db578063dd62ed3e1461020b5761009e565b806306fdde03146100a3578063095ea7b3146100c157806318160ddd146100f157806323b872dd1461010f578063313ce5671461013f575b600080fd5b6100ab61023b565b6040516100b89190610acd565b60405180910390f35b6100db60048036038101906100d69190610b88565b6102c9565b6040516100e89190610be3565b60405180910390f35b6100f961042a565b6040516101069190610c0d565b60405180910390f35b61012960048036038101906101249190610c28565b610430565b6040516101369190610be3565b60405180910390f35b61014761061c565b6040516101549190610c97565b60405180910390f35b61017760048036038101906101729190610cb2565b61062f565b6040516101849190610c0d565b60405180910390f35b610195610647565b6040516101a29190610acd565b60405180910390f35b6101c560048036038101906101c09190610b88565b6106d5565b6040516101d29190610be3565b60405180910390f35b6101f560048036038101906101f09190610b88565b61076e565b6040516102029190610be3565b60405180910390f35b61022560048036038101906102209190610cdf565b610807565b6040516102329190610c0d565b60405180910390f35b6000805461024890610d4e565b80601f016020809104026020016040519081016040528092919081815260200182805461027490610d4e565b80156102c15780601f10610296576101008083540402835291602001916102c1565b820191906000526020600020905b8154815290600101906020018083116102a457829003601f168201915b505050505081565b60008073ffffffffffffffffffffffffffffffffffffffff168373ffffffffffffffffffffffffffffffffffffffff16141561033a576040517f08c379a000000000000000000000000000000000000000000000000000000000815260040161033190610dcc565b60405180910390fd5b81600560003373ffffffffffffffffffffffffffffffffffffffff1673ffffffffffffffffffffffffffffffffffffffff16815260200190815260200160002060008573ffffffffffffffffffffffffffffffffffffffff1673ffffffffffffffffffffffffffffffffffffffff168152602001908152602001600020819055508273ffffffffffffffffffffffffffffffffffffffff163373ffffffffffffffffffffffffffffffffffffffff167f8c5be1e5ebec7d5bd14f71427d1e84f3dd0314c0f7b2291e5b200ac8c7c3b925846040516104189190610c0d565b60405180910390a36001905092915050565b60035481565b6000600460008573ffffffffffffffffffffffffffffffffffffffff1673ffffffffffffffffffffffffffffffffffffffff168152602001908152602001600020548211156104b4576040517f08c379a00000000000000000000000000000000000000000000000000000000081526004016104ab90610e38565b60405180910390fd5b600560008573ffffffffffffffffffffffffffffffffffffffff1673ffffffffffffffffffffffffffffffffffffffff16815260200190815260200160002060003373ffffffffffffffffffffffffffffffffffffffff1673ffffffffffffffffffffffffffffffffffffffff16815260200190815260200160002054821115610573576040517f08c379a000000000000000000000000000000000000000000000000000000000815260040161056a90610ea4565b60405180910390fd5b81600560008673ffffffffffffffffffffffffffffffffffffffff1673ffffffffffffffffffffffffffffffffffffffff16815260200190815260200160002060003373ffffffffffffffffffffffffffffffffffffffff1673ffffffffffffffffffffffffffffffffffffffff16815260200190815260200160002060008282546105ff9190610ef3565b9250508190555061061184848461082c565b600190509392505050565b600260009054906101000a900460ff1681565b60046020528060005260406000206000915090505481565b6001805461065490610d4e565b80601f016020809104026020016040519081016040528092919081815260200182805461068090610d4e565b80156106cd5780601f106106a2576101008083540402835291602001916106cd565b820191906000526020600020905b8154815290600101906020018083116106b057829003601f168201915b505050505081565b600081600460003373ffffffffffffffffffffffffffffffffffffffff1673ffffffffffffffffffffffffffffffffffffffff168152602001908152602001600020541015610759576040517f08c379a000000000000000000000000000000000000000000000000000000000815260040161075090610e38565b60405180910390fd5b61076433848461082c565b6001905092915050565b600081600460003073ffffffffffffffffffffffffffffffffffffffff1673ffffffffffffffffffffffffffffffffffffffff1681526020019081526020016000205410156107f2576040517f08c379a00000000000000000000000000000000000000000000000000000000081526004016107e990610e38565b60405180910390fd5b6107fd30848461082c565b6001905092915050565b6005602052816000526040600020602052806000526040600020600091509150505481565b600073ffffffffffffffffffffffffffffffffffffffff168273ffffffffffffffffffffffffffffffffffffffff16141561089c576040517f08c379a000000000000000000000000000000000000000000000000000000000815260040161089390610dcc565b60405180910390fd5b80600460008573ffffffffffffffffffffffffffffffffffffffff1673ffffffffffffffffffffffffffffffffffffffff16815260200190815260200160002054101561091e576040517f08c379a000000000000000000000000000000000000000000000000000000000815260040161091590610e38565b60405180910390fd5b80600460008573ffffffffffffffffffffffffffffffffffffffff1673ffffffffffffffffffffffffffffffffffffffff168152602001908152602001600020600082825461096d9190610ef3565b9250508190555080600460008473ffffffffffffffffffffffffffffffffffffffff1673ffffffffffffffffffffffffffffffffffffffff16815260200190815260200160002060008282546109c39190610f27565b925050819055508173ffffffffffffffffffffffffffffffffffffffff168373ffffffffffffffffffffffffffffffffffffffff167fddf252ad1be2c89b69c2b068fc378daa952ba7f163c4a11628f55a4df523b3ef83604051610a279190610c0d565b60405180910390a3505050565b600081519050919050565b600082825260208201905092915050565b60005b83811015610a6e578082015181840152602081019050610a53565b83811115610a7d576000848401525b50505050565b6000601f19601f8301169050919050565b6000610a9f82610a34565b610aa98185610a3f565b9350610ab9818560208601610a50565b610ac281610a83565b840191505092915050565b60006020820190508181036000830152610ae78184610a94565b905092915050565b600080fd5b600073ffffffffffffffffffffffffffffffffffffffff82169050919050565b6000610b1f82610af4565b9050919050565b610b2f81610b14565b8114610b3a57600080fd5b50565b600081359050610b4c81610b26565b92915050565b6000819050919050565b610b6581610b52565b8114610b7057600080fd5b50565b600081359050610b8281610b5c565b92915050565b60008060408385031215610b9f57610b9e610aef565b5b6000610bad85828601610b3d565b9250506020610bbe85828601610b73565b9150509250929050565b60008115159050919050565b610bdd81610bc8565b82525050565b6000602082019050610bf86000830184610bd4565b92915050565b610c0781610b52565b82525050565b6000602082019050610c226000830184610bfe565b92915050565b600080600060608486031215610c4157610c40610aef565b5b6000610c4f86828701610b3d565b9350506020610c6086828701610b3d565b9250506040610c7186828701610b73565b9150509250925092565b600060ff82169050919050565b610c9181610c7b565b82525050565b6000602082019050610cac6000830184610c88565b92915050565b600060208284031215610cc857610cc7610aef565b5b6000610cd684828501610b3d565b91505092915050565b60008060408385031215610cf657610cf5610aef565b5b6000610d0485828601610b3d565b9250506020610d1585828601610b3d565b9150509250929050565b7f4e487b7100000000000000000000000000000000000000000000000000000000600052602260045260246000fd5b60006002820490506001821680610d6657607f821691505b60208210811415610d7a57610d79610d1f565b5b50919050565b7f496e76616c696420616464726573730000000000000000000000000000000000600082015250565b6000610db6600f83610a3f565b9150610dc182610d80565b602082019050919050565b60006020820190508181036000830152610de581610da9565b9050919050565b7f496e73756666696369656e742062616c616e6365000000000000000000000000600082015250565b6000610e22601483610a3f565b9150610e2d82610dec565b602082019050919050565b60006020820190508181036000830152610e5181610e15565b9050919050565b7f496e73756666696369656e7420616c6c6f77616e636500000000000000000000600082015250565b6000610e8e601683610a3f565b9150610e9982610e58565b602082019050919050565b60006020820190508181036000830152610ebd81610e81565b9050919050565b7f4e487b7100000000000000000000000000000000000000000000000000000000600052601160045260246000fd5b6000610efe82610b52565b9150610f0983610b52565b925082821015610f1c57610f1b610ec4565b5b828203905092915050565b6000610f3282610b52565b9150610f3d83610b52565b9250827fffffffffffffffffffffffffffffffffffffffffffffffffffffffffffffffff03821115610f7257610f71610ec4565b5b82820190509291505056fea2646970667358221220650a5cd3d98358e057912ad509d23dbb3494b6c6db56483a215f716f1ce7f07864736f6c634300080a0033",
  "immutableReferences": {},
  "source": "// SPDX-License-Identifier: MIT\r\npragma solidity ^0.8.0;\r\n\r\ncontract Token{\r\n    string public name;\r\n    string public symbol;\r\n    uint8 public decimals=18;\r\n    uint256 public totalSupply;\r\n\r\n    mapping(address=>uint256) public balanceOf;\r\n    mapping(address=>mapping(address=>uint256)) public allowance;\r\n\r\n    event Transfer(address indexed from, address indexed to, uint256 value);\r\n    event Approval(address indexed owner,address indexed spender,uint256 value);\r\n\r\n    constructor(string memory _name,string memory _symbol,uint256 _totalSupply){\r\n        name=_name;\r\n        symbol=_symbol;\r\n        totalSupply=_totalSupply*(10**decimals);\r\n        balanceOf[address(this)]=totalSupply;\r\n    }\r\n\r\n    function _transfer(address _from, address _to, uint256 _value) internal{\r\n        require(_to!=address(0),\"Invalid address\");\r\n        require(balanceOf[_from]>=_value,\"Insufficient balance\");\r\n        balanceOf[_from]-=_value;\r\n        balanceOf[_to]+=_value;\r\n        emit Transfer(_from,_to,_value);\r\n    }\r\n\r\n    function transfer(address _to, uint256 _value) public returns(bool success){\r\n        require(balanceOf[msg.sender]>=_value,\"Insufficient balance\");\r\n       _transfer(msg.sender,_to,_value);\r\n        return true;\r\n    }\r\n\r\n    function approve(address _spender, uint256 _value) public returns(bool success){\r\n         require(_spender!=address(0),\"Invalid address\");\r\n         allowance[msg.sender][_spender]=_value;\r\n         emit Approval(msg.sender,_spender,_value);\r\n         return true;\r\n    }\r\n\r\n  function transferFrom(address _from, address _to, uint _value) public returns (bool success){\r\n     require(_value<=balanceOf[_from],\"Insufficient balance\");\r\n     require(_value<=allowance[_from][msg.sender],\"Insufficient allowance\");\r\n     allowance[_from][msg.sender]-=_value;\r\n     _transfer(_from, _to, _value);\r\n     return true;\r\n  }\r\n\r\n  function claim(address _to,uint256 _value) public returns(bool success){\r\n       require(balanceOf[address(this)]>=_value,\"Insufficient balance\");\r\n      _transfer(address(this),_to,_value);\r\n      return true;\r\n  }\r\n\r\n}",
  "sourcePath": "D:\\Chain of blox\\WarpTempus\\truffle\\contracts\\Token.sol",
  "compiler": {
    "name": "solc",
    "version": "0.8.10+commit.fc410830.Emscripten.clang"
  },
  "schemaVersion": "3.4.14",
  "updatedAt": "2023-08-16T17:25:36.501Z",
  "networkType": "ethereum",
  "devdoc": {
    "kind": "dev",
    "methods": {},
    "version": 1
  },
  "userdoc": {
    "kind": "user",
    "methods": {},
    "version": 1
  }
}