{
  "contractName": "WTnfts",
  "abi": [
    {
      "inputs": [
        {
          "internalType": "string",
          "name": "name",
          "type": "string"
        },
        {
          "internalType": "string",
          "name": "symbol",
          "type": "string"
        },
        {
          "internalType": "uint256",
          "name": "_price",
          "type": "uint256"
        }
      ],
      "stateMutability": "nonpayable",
      "type": "constructor"
    },
    {
      "anonymous": false,
      "inputs": [
        {
          "indexed": true,
          "internalType": "address",
          "name": "owner",
          "type": "address"
        },
        {
          "indexed": true,
          "internalType": "address",
          "name": "approved",
          "type": "address"
        },
        {
          "indexed": true,
          "internalType": "uint256",
          "name": "tokenId",
          "type": "uint256"
        }
      ],
      "name": "Approval",
      "type": "event"
    },
    {
      "anonymous": false,
      "inputs": [
        {
          "indexed": true,
          "internalType": "address",
          "name": "owner",
          "type": "address"
        },
        {
          "indexed": true,
          "internalType": "address",
          "name": "operator",
          "type": "address"
        },
        {
          "indexed": false,
          "internalType": "bool",
          "name": "approved",
          "type": "bool"
        }
      ],
      "name": "ApprovalForAll",
      "type": "event"
    },
    {
      "anonymous": false,
      "inputs": [
        {
          "indexed": true,
          "internalType": "address",
          "name": "from",
          "type": "address"
        },
        {
          "indexed": true,
          "internalType": "address",
          "name": "to",
          "type": "address"
        },
        {
          "indexed": true,
          "internalType": "uint256",
          "name": "tokenId",
          "type": "uint256"
        }
      ],
      "name": "Transfer",
      "type": "event"
    },
    {
      "inputs": [
        {
          "internalType": "address",
          "name": "to",
          "type": "address"
        },
        {
          "internalType": "uint256",
          "name": "tokenId",
          "type": "uint256"
        }
      ],
      "name": "approve",
      "outputs": [],
      "stateMutability": "nonpayable",
      "type": "function"
    },
    {
      "inputs": [
        {
          "internalType": "address",
          "name": "owner",
          "type": "address"
        }
      ],
      "name": "balanceOf",
      "outputs": [
        {
          "internalType": "uint256",
          "name": "",
          "type": "uint256"
        }
      ],
      "stateMutability": "view",
      "type": "function"
    },
    {
      "inputs": [
        {
          "internalType": "uint256",
          "name": "tokenId",
          "type": "uint256"
        }
      ],
      "name": "getApproved",
      "outputs": [
        {
          "internalType": "address",
          "name": "",
          "type": "address"
        }
      ],
      "stateMutability": "view",
      "type": "function"
    },
    {
      "inputs": [
        {
          "internalType": "address",
          "name": "owner",
          "type": "address"
        },
        {
          "internalType": "address",
          "name": "operator",
          "type": "address"
        }
      ],
      "name": "isApprovedForAll",
      "outputs": [
        {
          "internalType": "bool",
          "name": "",
          "type": "bool"
        }
      ],
      "stateMutability": "view",
      "type": "function"
    },
    {
      "inputs": [],
      "name": "name",
      "outputs": [
        {
          "internalType": "string",
          "name": "",
          "type": "string"
        }
      ],
      "stateMutability": "view",
      "type": "function"
    },
    {
      "inputs": [
        {
          "internalType": "uint256",
          "name": "tokenId",
          "type": "uint256"
        }
      ],
      "name": "ownerOf",
      "outputs": [
        {
          "internalType": "address",
          "name": "",
          "type": "address"
        }
      ],
      "stateMutability": "view",
      "type": "function"
    },
    {
      "inputs": [
        {
          "internalType": "address",
          "name": "from",
          "type": "address"
        },
        {
          "internalType": "address",
          "name": "to",
          "type": "address"
        },
        {
          "internalType": "uint256",
          "name": "tokenId",
          "type": "uint256"
        }
      ],
      "name": "safeTransferFrom",
      "outputs": [],
      "stateMutability": "nonpayable",
      "type": "function"
    },
    {
      "inputs": [
        {
          "internalType": "address",
          "name": "from",
          "type": "address"
        },
        {
          "internalType": "address",
          "name": "to",
          "type": "address"
        },
        {
          "internalType": "uint256",
          "name": "tokenId",
          "type": "uint256"
        },
        {
          "internalType": "bytes",
          "name": "data",
          "type": "bytes"
        }
      ],
      "name": "safeTransferFrom",
      "outputs": [],
      "stateMutability": "nonpayable",
      "type": "function"
    },
    {
      "inputs": [
        {
          "internalType": "address",
          "name": "operator",
          "type": "address"
        },
        {
          "internalType": "bool",
          "name": "approved",
          "type": "bool"
        }
      ],
      "name": "setApprovalForAll",
      "outputs": [],
      "stateMutability": "nonpayable",
      "type": "function"
    },
    {
      "inputs": [
        {
          "internalType": "bytes4",
          "name": "interfaceId",
          "type": "bytes4"
        }
      ],
      "name": "supportsInterface",
      "outputs": [
        {
          "internalType": "bool",
          "name": "",
          "type": "bool"
        }
      ],
      "stateMutability": "view",
      "type": "function"
    },
    {
      "inputs": [],
      "name": "symbol",
      "outputs": [
        {
          "internalType": "string",
          "name": "",
          "type": "string"
        }
      ],
      "stateMutability": "view",
      "type": "function"
    },
    {
      "inputs": [
        {
          "internalType": "uint256",
          "name": "tokenId",
          "type": "uint256"
        }
      ],
      "name": "tokenURI",
      "outputs": [
        {
          "internalType": "string",
          "name": "",
          "type": "string"
        }
      ],
      "stateMutability": "view",
      "type": "function"
    },
    {
      "inputs": [
        {
          "internalType": "address",
          "name": "from",
          "type": "address"
        },
        {
          "internalType": "address",
          "name": "to",
          "type": "address"
        },
        {
          "internalType": "uint256",
          "name": "tokenId",
          "type": "uint256"
        }
      ],
      "name": "transferFrom",
      "outputs": [],
      "stateMutability": "nonpayable",
      "type": "function"
    },
    {
      "inputs": [],
      "name": "totalSupply",
      "outputs": [
        {
          "internalType": "uint256",
          "name": "",
          "type": "uint256"
        }
      ],
      "stateMutability": "view",
      "type": "function"
    },
    {
      "inputs": [
        {
          "internalType": "address",
          "name": "to",
          "type": "address"
        }
      ],
      "name": "safeMint",
      "outputs": [
        {
          "internalType": "uint256",
          "name": "",
          "type": "uint256"
        }
      ],
      "stateMutability": "payable",
      "type": "function"
    }
  ],
  "bytecode": "0x60806040523480156200001157600080fd5b5060405162002cf338038062002cf383398181016040528101906200003791906200023d565b828281600090816200004a919062000518565b5080600190816200005c919062000518565b50505080600681905550505050620005ff565b6000604051905090565b600080fd5b600080fd5b600080fd5b600080fd5b6000601f19601f8301169050919050565b7f4e487b7100000000000000000000000000000000000000000000000000000000600052604160045260246000fd5b620000d8826200008d565b810181811067ffffffffffffffff82111715620000fa57620000f96200009e565b5b80604052505050565b60006200010f6200006f565b90506200011d8282620000cd565b919050565b600067ffffffffffffffff82111562000140576200013f6200009e565b5b6200014b826200008d565b9050602081019050919050565b60005b83811015620001785780820151818401526020810190506200015b565b60008484015250505050565b60006200019b620001958462000122565b62000103565b905082815260208101848484011115620001ba57620001b962000088565b5b620001c784828562000158565b509392505050565b600082601f830112620001e757620001e662000083565b5b8151620001f984826020860162000184565b91505092915050565b6000819050919050565b620002178162000202565b81146200022357600080fd5b50565b60008151905062000237816200020c565b92915050565b60008060006060848603121562000259576200025862000079565b5b600084015167ffffffffffffffff8111156200027a57620002796200007e565b5b6200028886828701620001cf565b935050602084015167ffffffffffffffff811115620002ac57620002ab6200007e565b5b620002ba86828701620001cf565b9250506040620002cd8682870162000226565b9150509250925092565b600081519050919050565b7f4e487b7100000000000000000000000000000000000000000000000000000000600052602260045260246000fd5b600060028204905060018216806200032a57607f821691505b60208210810362000340576200033f620002e2565b5b50919050565b60008190508160005260206000209050919050565b60006020601f8301049050919050565b600082821b905092915050565b600060088302620003aa7fffffffffffffffffffffffffffffffffffffffffffffffffffffffffffffffff826200036b565b620003b686836200036b565b95508019841693508086168417925050509392505050565b6000819050919050565b6000620003f9620003f3620003ed8462000202565b620003ce565b62000202565b9050919050565b6000819050919050565b6200041583620003d8565b6200042d620004248262000400565b84845462000378565b825550505050565b600090565b6200044462000435565b620004518184846200040a565b505050565b5b8181101562000479576200046d6000826200043a565b60018101905062000457565b5050565b601f821115620004c857620004928162000346565b6200049d846200035b565b81016020851015620004ad578190505b620004c5620004bc856200035b565b83018262000456565b50505b505050565b600082821c905092915050565b6000620004ed60001984600802620004cd565b1980831691505092915050565b6000620005088383620004da565b9150826002028217905092915050565b6200052382620002d7565b67ffffffffffffffff8111156200053f576200053e6200009e565b5b6200054b825462000311565b620005588282856200047d565b600060209050601f8311600181146200059057600084156200057b578287015190505b620005878582620004fa565b865550620005f7565b601f198416620005a08662000346565b60005b82811015620005ca57848901518255600182019150602085019450602081019050620005a3565b86831015620005ea5784890151620005e6601f891682620004da565b8355505b6001600288020188555050505b505050505050565b6126e4806200060f6000396000f3fe6080604052600436106100e85760003560e01c806342842e0e1161008a578063a22cb46511610059578063a22cb4651461030d578063b88d4fde14610336578063c87b56dd1461035f578063e985e9c51461039c576100e8565b806342842e0e1461023f5780636352211e1461026857806370a08231146102a557806395d89b41146102e2576100e8565b8063095ea7b3116100c6578063095ea7b31461019257806318160ddd146101bb57806323b872dd146101e657806340d097c31461020f576100e8565b806301ffc9a7146100ed57806306fdde031461012a578063081812fc14610155575b600080fd5b3480156100f957600080fd5b50610114600480360381019061010f919061194e565b6103d9565b6040516101219190611996565b60405180910390f35b34801561013657600080fd5b5061013f6104bb565b60405161014c9190611a41565b60405180910390f35b34801561016157600080fd5b5061017c60048036038101906101779190611a99565b61054d565b6040516101899190611b07565b60405180910390f35b34801561019e57600080fd5b506101b960048036038101906101b49190611b4e565b610593565b005b3480156101c757600080fd5b506101d06106aa565b6040516101dd9190611b9d565b60405180910390f35b3480156101f257600080fd5b5061020d60048036038101906102089190611bb8565b6106bb565b005b61022960048036038101906102249190611c0b565b61071b565b6040516102369190611b9d565b60405180910390f35b34801561024b57600080fd5b5061026660048036038101906102619190611bb8565b61078d565b005b34801561027457600080fd5b5061028f600480360381019061028a9190611a99565b6107ad565b60405161029c9190611b07565b60405180910390f35b3480156102b157600080fd5b506102cc60048036038101906102c79190611c0b565b610833565b6040516102d99190611b9d565b60405180910390f35b3480156102ee57600080fd5b506102f76108ea565b6040516103049190611a41565b60405180910390f35b34801561031957600080fd5b50610334600480360381019061032f9190611c64565b61097c565b005b34801561034257600080fd5b5061035d60048036038101906103589190611dd9565b610992565b005b34801561036b57600080fd5b5061038660048036038101906103819190611a99565b6109f4565b6040516103939190611a41565b60405180910390f35b3480156103a857600080fd5b506103c360048036038101906103be9190611e5c565b610a5c565b6040516103d09190611996565b60405180910390f35b60007f80ac58cd000000000000000000000000000000000000000000000000000000007bffffffffffffffffffffffffffffffffffffffffffffffffffffffff1916827bffffffffffffffffffffffffffffffffffffffffffffffffffffffff191614806104a457507f5b5e139f000000000000000000000000000000000000000000000000000000007bffffffffffffffffffffffffffffffffffffffffffffffffffffffff1916827bffffffffffffffffffffffffffffffffffffffffffffffffffffffff1916145b806104b457506104b382610af0565b5b9050919050565b6060600080546104ca90611ecb565b80601f01602080910402602001604051908101604052809291908181526020018280546104f690611ecb565b80156105435780601f1061051857610100808354040283529160200191610543565b820191906000526020600020905b81548152906001019060200180831161052657829003601f168201915b5050505050905090565b600061055882610b5a565b6004600083815260200190815260200160002060009054906101000a900473ffffffffffffffffffffffffffffffffffffffff169050919050565b600061059e826107ad565b90508073ffffffffffffffffffffffffffffffffffffffff168373ffffffffffffffffffffffffffffffffffffffff160361060e576040517f08c379a000000000000000000000000000000000000000000000000000000000815260040161060590611f6e565b60405180910390fd5b8073ffffffffffffffffffffffffffffffffffffffff1661062d610ba5565b73ffffffffffffffffffffffffffffffffffffffff16148061065c575061065b81610656610ba5565b610a5c565b5b61069b576040517f08c379a000000000000000000000000000000000000000000000000000000000815260040161069290612000565b60405180910390fd5b6106a58383610bad565b505050565b60006106b66007610c66565b905090565b6106cc6106c6610ba5565b82610c74565b61070b576040517f08c379a000000000000000000000000000000000000000000000000000000000815260040161070290612092565b60405180910390fd5b610716838383610d09565b505050565b6000600654341015610762576040517f08c379a000000000000000000000000000000000000000000000000000000000815260040161075990612124565b60405180910390fd5b600061076e6007610c66565b905061077a8382611002565b6107846007611020565b80915050919050565b6107a883838360405180602001604052806000815250610992565b505050565b6000806107b983611036565b9050600073ffffffffffffffffffffffffffffffffffffffff168173ffffffffffffffffffffffffffffffffffffffff160361082a576040517f08c379a000000000000000000000000000000000000000000000000000000000815260040161082190612190565b60405180910390fd5b80915050919050565b60008073ffffffffffffffffffffffffffffffffffffffff168273ffffffffffffffffffffffffffffffffffffffff16036108a3576040517f08c379a000000000000000000000000000000000000000000000000000000000815260040161089a90612222565b60405180910390fd5b600360008373ffffffffffffffffffffffffffffffffffffffff1673ffffffffffffffffffffffffffffffffffffffff168152602001908152602001600020549050919050565b6060600180546108f990611ecb565b80601f016020809104026020016040519081016040528092919081815260200182805461092590611ecb565b80156109725780601f1061094757610100808354040283529160200191610972565b820191906000526020600020905b81548152906001019060200180831161095557829003601f168201915b5050505050905090565b61098e610987610ba5565b8383611073565b5050565b6109a361099d610ba5565b83610c74565b6109e2576040517f08c379a00000000000000000000000000000000000000000000000000000000081526004016109d990612092565b60405180910390fd5b6109ee848484846111df565b50505050565b60606109ff82610b5a565b6000610a0961123b565b90506000815111610a295760405180602001604052806000815250610a54565b80610a3384611252565b604051602001610a4492919061227e565b6040516020818303038152906040525b915050919050565b6000600560008473ffffffffffffffffffffffffffffffffffffffff1673ffffffffffffffffffffffffffffffffffffffff16815260200190815260200160002060008373ffffffffffffffffffffffffffffffffffffffff1673ffffffffffffffffffffffffffffffffffffffff16815260200190815260200160002060009054906101000a900460ff16905092915050565b60007f01ffc9a7000000000000000000000000000000000000000000000000000000007bffffffffffffffffffffffffffffffffffffffffffffffffffffffff1916827bffffffffffffffffffffffffffffffffffffffffffffffffffffffff1916149050919050565b610b6381611320565b610ba2576040517f08c379a0000000000000000000000000000000000000000000000000000000008152600401610b9990612190565b60405180910390fd5b50565b600033905090565b816004600083815260200190815260200160002060006101000a81548173ffffffffffffffffffffffffffffffffffffffff021916908373ffffffffffffffffffffffffffffffffffffffff160217905550808273ffffffffffffffffffffffffffffffffffffffff16610c20836107ad565b73ffffffffffffffffffffffffffffffffffffffff167f8c5be1e5ebec7d5bd14f71427d1e84f3dd0314c0f7b2291e5b200ac8c7c3b92560405160405180910390a45050565b600081600001549050919050565b600080610c80836107ad565b90508073ffffffffffffffffffffffffffffffffffffffff168473ffffffffffffffffffffffffffffffffffffffff161480610cc25750610cc18185610a5c565b5b80610d0057508373ffffffffffffffffffffffffffffffffffffffff16610ce88461054d565b73ffffffffffffffffffffffffffffffffffffffff16145b91505092915050565b8273ffffffffffffffffffffffffffffffffffffffff16610d29826107ad565b73ffffffffffffffffffffffffffffffffffffffff1614610d7f576040517f08c379a0000000000000000000000000000000000000000000000000000000008152600401610d7690612314565b60405180910390fd5b600073ffffffffffffffffffffffffffffffffffffffff168273ffffffffffffffffffffffffffffffffffffffff1603610dee576040517f08c379a0000000000000000000000000000000000000000000000000000000008152600401610de5906123a6565b60405180910390fd5b610dfb8383836001611361565b8273ffffffffffffffffffffffffffffffffffffffff16610e1b826107ad565b73ffffffffffffffffffffffffffffffffffffffff1614610e71576040517f08c379a0000000000000000000000000000000000000000000000000000000008152600401610e6890612314565b60405180910390fd5b6004600082815260200190815260200160002060006101000a81549073ffffffffffffffffffffffffffffffffffffffff02191690556001600360008573ffffffffffffffffffffffffffffffffffffffff1673ffffffffffffffffffffffffffffffffffffffff168152602001908152602001600020600082825403925050819055506001600360008473ffffffffffffffffffffffffffffffffffffffff1673ffffffffffffffffffffffffffffffffffffffff16815260200190815260200160002060008282540192505081905550816002600083815260200190815260200160002060006101000a81548173ffffffffffffffffffffffffffffffffffffffff021916908373ffffffffffffffffffffffffffffffffffffffff160217905550808273ffffffffffffffffffffffffffffffffffffffff168473ffffffffffffffffffffffffffffffffffffffff167fddf252ad1be2c89b69c2b068fc378daa952ba7f163c4a11628f55a4df523b3ef60405160405180910390a4610ffd8383836001611367565b505050565b61101c82826040518060200160405280600081525061136d565b5050565b6001816000016000828254019250508190555050565b60006002600083815260200190815260200160002060009054906101000a900473ffffffffffffffffffffffffffffffffffffffff169050919050565b8173ffffffffffffffffffffffffffffffffffffffff168373ffffffffffffffffffffffffffffffffffffffff16036110e1576040517f08c379a00000000000000000000000000000000000000000000000000000000081526004016110d890612412565b60405180910390fd5b80600560008573ffffffffffffffffffffffffffffffffffffffff1673ffffffffffffffffffffffffffffffffffffffff16815260200190815260200160002060008473ffffffffffffffffffffffffffffffffffffffff1673ffffffffffffffffffffffffffffffffffffffff16815260200190815260200160002060006101000a81548160ff0219169083151502179055508173ffffffffffffffffffffffffffffffffffffffff168373ffffffffffffffffffffffffffffffffffffffff167f17307eab39ab6107e8899845ad3d59bd9653f200f220920489ca2b5937696c31836040516111d29190611996565b60405180910390a3505050565b6111ea848484610d09565b6111f6848484846113c8565b611235576040517f08c379a000000000000000000000000000000000000000000000000000000000815260040161122c906124a4565b60405180910390fd5b50505050565b606060405180602001604052806000815250905090565b6060600060016112618461154f565b01905060008167ffffffffffffffff8111156112805761127f611cae565b5b6040519080825280601f01601f1916602001820160405280156112b25781602001600182028036833780820191505090505b509050600082602001820190505b600115611315578080600190039150507f3031323334353637383961626364656600000000000000000000000000000000600a86061a8153600a8581611309576113086124c4565b5b049450600085036112c0575b819350505050919050565b60008073ffffffffffffffffffffffffffffffffffffffff1661134283611036565b73ffffffffffffffffffffffffffffffffffffffff1614159050919050565b50505050565b50505050565b61137783836116a2565b61138460008484846113c8565b6113c3576040517f08c379a00000000000000000000000000000000000000000000000000000000081526004016113ba906124a4565b60405180910390fd5b505050565b60006113e98473ffffffffffffffffffffffffffffffffffffffff166118bf565b15611542578373ffffffffffffffffffffffffffffffffffffffff1663150b7a02611412610ba5565b8786866040518563ffffffff1660e01b81526004016114349493929190612548565b6020604051808303816000875af192505050801561147057506040513d601f19601f8201168201806040525081019061146d91906125a9565b60015b6114f2573d80600081146114a0576040519150601f19603f3d011682016040523d82523d6000602084013e6114a5565b606091505b5060008151036114ea576040517f08c379a00000000000000000000000000000000000000000000000000000000081526004016114e1906124a4565b60405180910390fd5b805181602001fd5b63150b7a0260e01b7bffffffffffffffffffffffffffffffffffffffffffffffffffffffff1916817bffffffffffffffffffffffffffffffffffffffffffffffffffffffff191614915050611547565b600190505b949350505050565b600080600090507a184f03e93ff9f4daa797ed6e38ed64bf6a1f01000000000000000083106115ad577a184f03e93ff9f4daa797ed6e38ed64bf6a1f01000000000000000083816115a3576115a26124c4565b5b0492506040810190505b6d04ee2d6d415b85acef810000000083106115ea576d04ee2d6d415b85acef810000000083816115e0576115df6124c4565b5b0492506020810190505b662386f26fc10000831061161957662386f26fc10000838161160f5761160e6124c4565b5b0492506010810190505b6305f5e1008310611642576305f5e1008381611638576116376124c4565b5b0492506008810190505b612710831061166757612710838161165d5761165c6124c4565b5b0492506004810190505b6064831061168a57606483816116805761167f6124c4565b5b0492506002810190505b600a8310611699576001810190505b80915050919050565b600073ffffffffffffffffffffffffffffffffffffffff168273ffffffffffffffffffffffffffffffffffffffff1603611711576040517f08c379a000000000000000000000000000000000000000000000000000000000815260040161170890612622565b60405180910390fd5b61171a81611320565b1561175a576040517f08c379a00000000000000000000000000000000000000000000000000000000081526004016117519061268e565b60405180910390fd5b611768600083836001611361565b61177181611320565b156117b1576040517f08c379a00000000000000000000000000000000000000000000000000000000081526004016117a89061268e565b60405180910390fd5b6001600360008473ffffffffffffffffffffffffffffffffffffffff1673ffffffffffffffffffffffffffffffffffffffff16815260200190815260200160002060008282540192505081905550816002600083815260200190815260200160002060006101000a81548173ffffffffffffffffffffffffffffffffffffffff021916908373ffffffffffffffffffffffffffffffffffffffff160217905550808273ffffffffffffffffffffffffffffffffffffffff16600073ffffffffffffffffffffffffffffffffffffffff167fddf252ad1be2c89b69c2b068fc378daa952ba7f163c4a11628f55a4df523b3ef60405160405180910390a46118bb600083836001611367565b5050565b6000808273ffffffffffffffffffffffffffffffffffffffff163b119050919050565b6000604051905090565b600080fd5b600080fd5b60007fffffffff0000000000000000000000000000000000000000000000000000000082169050919050565b61192b816118f6565b811461193657600080fd5b50565b60008135905061194881611922565b92915050565b600060208284031215611964576119636118ec565b5b600061197284828501611939565b91505092915050565b60008115159050919050565b6119908161197b565b82525050565b60006020820190506119ab6000830184611987565b92915050565b600081519050919050565b600082825260208201905092915050565b60005b838110156119eb5780820151818401526020810190506119d0565b60008484015250505050565b6000601f19601f8301169050919050565b6000611a13826119b1565b611a1d81856119bc565b9350611a2d8185602086016119cd565b611a36816119f7565b840191505092915050565b60006020820190508181036000830152611a5b8184611a08565b905092915050565b6000819050919050565b611a7681611a63565b8114611a8157600080fd5b50565b600081359050611a9381611a6d565b92915050565b600060208284031215611aaf57611aae6118ec565b5b6000611abd84828501611a84565b91505092915050565b600073ffffffffffffffffffffffffffffffffffffffff82169050919050565b6000611af182611ac6565b9050919050565b611b0181611ae6565b82525050565b6000602082019050611b1c6000830184611af8565b92915050565b611b2b81611ae6565b8114611b3657600080fd5b50565b600081359050611b4881611b22565b92915050565b60008060408385031215611b6557611b646118ec565b5b6000611b7385828601611b39565b9250506020611b8485828601611a84565b9150509250929050565b611b9781611a63565b82525050565b6000602082019050611bb26000830184611b8e565b92915050565b600080600060608486031215611bd157611bd06118ec565b5b6000611bdf86828701611b39565b9350506020611bf086828701611b39565b9250506040611c0186828701611a84565b9150509250925092565b600060208284031215611c2157611c206118ec565b5b6000611c2f84828501611b39565b91505092915050565b611c418161197b565b8114611c4c57600080fd5b50565b600081359050611c5e81611c38565b92915050565b60008060408385031215611c7b57611c7a6118ec565b5b6000611c8985828601611b39565b9250506020611c9a85828601611c4f565b9150509250929050565b600080fd5b600080fd5b7f4e487b7100000000000000000000000000000000000000000000000000000000600052604160045260246000fd5b611ce6826119f7565b810181811067ffffffffffffffff82111715611d0557611d04611cae565b5b80604052505050565b6000611d186118e2565b9050611d248282611cdd565b919050565b600067ffffffffffffffff821115611d4457611d43611cae565b5b611d4d826119f7565b9050602081019050919050565b82818337600083830152505050565b6000611d7c611d7784611d29565b611d0e565b905082815260208101848484011115611d9857611d97611ca9565b5b611da3848285611d5a565b509392505050565b600082601f830112611dc057611dbf611ca4565b5b8135611dd0848260208601611d69565b91505092915050565b60008060008060808587031215611df357611df26118ec565b5b6000611e0187828801611b39565b9450506020611e1287828801611b39565b9350506040611e2387828801611a84565b925050606085013567ffffffffffffffff811115611e4457611e436118f1565b5b611e5087828801611dab565b91505092959194509250565b60008060408385031215611e7357611e726118ec565b5b6000611e8185828601611b39565b9250506020611e9285828601611b39565b9150509250929050565b7f4e487b7100000000000000000000000000000000000000000000000000000000600052602260045260246000fd5b60006002820490506001821680611ee357607f821691505b602082108103611ef657611ef5611e9c565b5b50919050565b7f4552433732313a20617070726f76616c20746f2063757272656e74206f776e6560008201527f7200000000000000000000000000000000000000000000000000000000000000602082015250565b6000611f586021836119bc565b9150611f6382611efc565b604082019050919050565b60006020820190508181036000830152611f8781611f4b565b9050919050565b7f4552433732313a20617070726f76652063616c6c6572206973206e6f7420746f60008201527f6b656e206f776e6572206f7220617070726f76656420666f7220616c6c000000602082015250565b6000611fea603d836119bc565b9150611ff582611f8e565b604082019050919050565b6000602082019050818103600083015261201981611fdd565b9050919050565b7f4552433732313a2063616c6c6572206973206e6f7420746f6b656e206f776e6560008201527f72206f7220617070726f76656400000000000000000000000000000000000000602082015250565b600061207c602d836119bc565b915061208782612020565b604082019050919050565b600060208201905081810360008301526120ab8161206f565b9050919050565b7f4e6f7420656e6f756768204554482073656e743b20636865636b20707269636560008201527f2100000000000000000000000000000000000000000000000000000000000000602082015250565b600061210e6021836119bc565b9150612119826120b2565b604082019050919050565b6000602082019050818103600083015261213d81612101565b9050919050565b7f4552433732313a20696e76616c696420746f6b656e2049440000000000000000600082015250565b600061217a6018836119bc565b915061218582612144565b602082019050919050565b600060208201905081810360008301526121a98161216d565b9050919050565b7f4552433732313a2061646472657373207a65726f206973206e6f74206120766160008201527f6c6964206f776e65720000000000000000000000000000000000000000000000602082015250565b600061220c6029836119bc565b9150612217826121b0565b604082019050919050565b6000602082019050818103600083015261223b816121ff565b9050919050565b600081905092915050565b6000612258826119b1565b6122628185612242565b93506122728185602086016119cd565b80840191505092915050565b600061228a828561224d565b9150612296828461224d565b91508190509392505050565b7f4552433732313a207472616e736665722066726f6d20696e636f72726563742060008201527f6f776e6572000000000000000000000000000000000000000000000000000000602082015250565b60006122fe6025836119bc565b9150612309826122a2565b604082019050919050565b6000602082019050818103600083015261232d816122f1565b9050919050565b7f4552433732313a207472616e7366657220746f20746865207a65726f2061646460008201527f7265737300000000000000000000000000000000000000000000000000000000602082015250565b60006123906024836119bc565b915061239b82612334565b604082019050919050565b600060208201905081810360008301526123bf81612383565b9050919050565b7f4552433732313a20617070726f766520746f2063616c6c657200000000000000600082015250565b60006123fc6019836119bc565b9150612407826123c6565b602082019050919050565b6000602082019050818103600083015261242b816123ef565b9050919050565b7f4552433732313a207472616e7366657220746f206e6f6e20455243373231526560008201527f63656976657220696d706c656d656e7465720000000000000000000000000000602082015250565b600061248e6032836119bc565b915061249982612432565b604082019050919050565b600060208201905081810360008301526124bd81612481565b9050919050565b7f4e487b7100000000000000000000000000000000000000000000000000000000600052601260045260246000fd5b600081519050919050565b600082825260208201905092915050565b600061251a826124f3565b61252481856124fe565b93506125348185602086016119cd565b61253d816119f7565b840191505092915050565b600060808201905061255d6000830187611af8565b61256a6020830186611af8565b6125776040830185611b8e565b8181036060830152612589818461250f565b905095945050505050565b6000815190506125a381611922565b92915050565b6000602082840312156125bf576125be6118ec565b5b60006125cd84828501612594565b91505092915050565b7f4552433732313a206d696e7420746f20746865207a65726f2061646472657373600082015250565b600061260c6020836119bc565b9150612617826125d6565b602082019050919050565b6000602082019050818103600083015261263b816125ff565b9050919050565b7f4552433732313a20746f6b656e20616c7265616479206d696e74656400000000600082015250565b6000612678601c836119bc565b915061268382612642565b602082019050919050565b600060208201905081810360008301526126a78161266b565b905091905056fea2646970667358221220015abe72d93334629f93b2153b1767670a76d08ecea8e4b76ecbc6b4754c093064736f6c63430008130033",
  "immutableReferences": {},
  "source": "// SPDX-License-Identifier: MIT\r\npragma solidity ^0.8.9;\r\n\r\nimport \"@openzeppelin/contracts/token/ERC721/ERC721.sol\";\r\nimport \"@openzeppelin/contracts/utils/Counters.sol\";\r\n\r\ncontract WTnfts is ERC721 {\r\n    uint256 price;\r\n    using Counters for Counters.Counter;\r\n    Counters.Counter private tokenIds;\r\n\r\n    constructor(string memory name, string memory symbol, uint256 _price) ERC721(name, symbol) {\r\n        price = _price;\r\n    }\r\n\r\n    function totalSupply() public view returns (uint256) {\r\n        return tokenIds.current();\r\n    }\r\n\r\n    function safeMint(address to) payable public returns(uint256) {\r\n        require(msg.value >= price, \"Not enough ETH sent; check price!\");\r\n        uint256 tokenId = tokenIds.current();\r\n        _safeMint(to, tokenId);\r\n        tokenIds.increment();\r\n        return tokenId;\r\n    }\r\n}",
  "sourcePath": "D:\\Chain of blox\\WarpTempus\\truffle\\contracts\\ERC-6551\\WTnfts.sol",
  "compiler": {
    "name": "solc",
    "version": "0.8.19+commit.7dd6d404.Emscripten.clang"
  },
  "schemaVersion": "3.4.14",
  "updatedAt": "2023-08-20T15:24:07.498Z",
  "networkType": "ethereum",
  "devdoc": {
    "events": {
      "Approval(address,address,uint256)": {
        "details": "Emitted when `owner` enables `approved` to manage the `tokenId` token."
      },
      "ApprovalForAll(address,address,bool)": {
        "details": "Emitted when `owner` enables or disables (`approved`) `operator` to manage all of its assets."
      },
      "Transfer(address,address,uint256)": {
        "details": "Emitted when `tokenId` token is transferred from `from` to `to`."
      }
    },
    "kind": "dev",
    "methods": {
      "approve(address,uint256)": {
        "details": "See {IERC721-approve}."
      },
      "balanceOf(address)": {
        "details": "See {IERC721-balanceOf}."
      },
      "getApproved(uint256)": {
        "details": "See {IERC721-getApproved}."
      },
      "isApprovedForAll(address,address)": {
        "details": "See {IERC721-isApprovedForAll}."
      },
      "name()": {
        "details": "See {IERC721Metadata-name}."
      },
      "ownerOf(uint256)": {
        "details": "See {IERC721-ownerOf}."
      },
      "safeTransferFrom(address,address,uint256)": {
        "details": "See {IERC721-safeTransferFrom}."
      },
      "safeTransferFrom(address,address,uint256,bytes)": {
        "details": "See {IERC721-safeTransferFrom}."
      },
      "setApprovalForAll(address,bool)": {
        "details": "See {IERC721-setApprovalForAll}."
      },
      "supportsInterface(bytes4)": {
        "details": "See {IERC165-supportsInterface}."
      },
      "symbol()": {
        "details": "See {IERC721Metadata-symbol}."
      },
      "tokenURI(uint256)": {
        "details": "See {IERC721Metadata-tokenURI}."
      },
      "transferFrom(address,address,uint256)": {
        "details": "See {IERC721-transferFrom}."
      }
    },
    "version": 1
  },
  "userdoc": {
    "kind": "user",
    "methods": {},
    "version": 1
  }
}